:020000040800F2
:1000000010DC01201D5B0008D1080008D30800089F
:10001000D5080008D7080008D9080008000000002B
:10002000000000000000000000000000DB080008E5
:10003000DD08000800000000DF080008E1080008F3
:10004000375B0008375B0008375B0008375B000848
:10005000375B0008375B0008375B0008375B000838
:10006000375B0008375B0008375B0008375B000828
:10007000375B0008375B0008375B0008375B000818
:10008000375B0008375B0008375B0008375B000808
:10009000375B0008375B0008375B0008375B0008F8
:1000A000375B0008375B0008375B0008375B0008E8
:1000B000375B0008E1580008375B0008375B000831
:1000C000375B0008375B0008375B0008375B0008C8
:1000D000375B0008B55A0008375B0008375B00083B
:1000E000375B0008375B0008375B0008375B0008A8
:1000F000375B0008375B0008375B0008375B000898
:10010000375B0008375B0008375B0008375B000887
:10011000375B0008375B0008375B0008375B000877
:10012000375B0008375B0008375B0008375B000867
:10013000375B0008375B0008375B0008375B000857
:10014000375B0008375B0008375B0008375B000847
:10015000375B0008375B0008375B0008375B000837
:10016000375B0008375B0008375B0008375B000827
:10017000375B0008375B00082D4D0008375B00082F
:10018000375B0008375B0008DFF80CD00CF0F2FF9B
:10019000004800470B06000810DC012070B540F253
:1001A00093100BF064F9FD480AF0A9FDFC480CF02F
:1001B000CDFA0546FA4810300CF006F8F74C2946FF
:1001C000E268904706460BF0A5FCA26931469047CD
:1001D0000646F34838300CF03CFCE2683146904764
:1001E0000646EF4848300BF0EFFFE2683146904793
:1001F00006460BF08FFCA269314690470646E84858
:1002000070300CF026FCE268314690470646E44820
:1002100080300BF0D9FFE268314690470646E0484F
:1002200008380CF067FAE268314690470646DC4829
:10023000A8300CF06FF9E268314690470646D8487E
:10024000C0300CF067F9E268314690470646D44862
:10025000001F0CF0A5FCE268314690470646D048E6
:1002600008300CF030FCE2683146904702462946DF
:1002700020460BF021F8204670BD10B504F043FE77
:10028000C8490120487010BD2DE9F0410024054601
:100290001C264FF444772878002894FBF6F081B2AE
:1002A00094FBF6F006FB104080B209D05FF000022C
:1002B00000F088FE641C6D1CBC42ECDBBDE8F081E4
:1002C0004FF6FF72F4E72DE9F047994615460646CA
:1002D00000244FF0FF0800FB01F71DE005EB440090
:1002E00015F81410407841EA002000F01F0048453E
:1002F00002D905F8048001E000202855B4FBF6F08F
:1003000081B2B4FBF6F006FB10402B5D80B248EAE8
:10031000032200F057FE641CA742DFD8BDE8F08737
:100320002DE9F047A04F002415464FF01E091C266A
:10033000A7F5447A002211460020C1EBC10300BF9B
:10034000B4FBF6FCB4FBF6F8CCEBCC0CA8EBC8087D
:100350004FEA0C2C04EB88080CEBC80C0CEB431C8C
:10036000844437F81CC0BCF1000F01D1521CD2B23A
:10037000401CC0B20828E3D3491CC9B20829DBD30A
:100380004A450FD3B4FBF5F07F210AF8041000F5BD
:10039000827081B2B4FBF5F005FB1040143080B2DE
:1003A00000220FE0B4FBF5F000210AF8041000F57C
:1003B000827081B2B4FBF5F005FB1040143080B2BE
:1003C00048F2304200F0FEFD641CA4B2B4F5447F54
:1003D000B0D3A3E72DE9F84FD07891784FF000081B
:1003E00001EB002084B2507911794FF0FF0901EB45
:1003F00000201FFA80FA02F10805464604FB0AF7BE
:1004000012E000BF05EB460115F81600497840EAF6
:100410000122B6FBF4F081B2B6FBF4F004FB1060ED
:1004200080B200F0CFFD761CB742EBD84FF0100B36
:100430005E4603232246F0211E20CDF800B004F0D2
:10044000C8FB03235246F0213C20009604F0C1FB78
:100450004FF47A7005F0B5FA0026DFF84CA122E0DF
:1004600005EB460115F81600497840EA012101F034
:100470001F0021F4FC62404500D98046484500D267
:1004800081460A2801D3FF2100E00021B6FBF4F0E9
:100490002AF8161081B2B6FBF4F004FB106080B2AB
:1004A00000F090FD761CB742DAD85D4603234A4639
:1004B000F0215A20CDF800B004F08BFB0323424614
:1004C000F0217820009504F084FB4FF47A7005F059
:1004D00078FA002556464FF6FF780EE0B5FBF4F0AB
:1004E00081B2B5FBF4F004FB105036F8153080B241
:1004F00008EA032200F066FD6D1CAF42EED801B0A1
:100500001C23BDE8F04FE0211A46084608E72DE914
:10051000FC41002635464FF4A06005F011FBA820F1
:1005200005F00EFA00F09CFA00F013FF04F04EFD07
:100530004FF4E13005F068FA532142F20F7005F0F4
:10054000A3F91A494FF478401024088018A0CDE987
:1005500000402346C82282211E2004F0B5FB0F492B
:1005600000208831A1F569724FF4447311F800C07E
:1005700002F800C0401C80B29842F7D338460AF017
:1005800067FF064900200C390A56AA4201DD0D5CBE
:10059000C6B2401C80B20A28F6D30FE074030020D4
:1005A000B4DA0008000000200C070020180000202A
:1005B0004F5632363430204F4B000000B0A0CDE90A
:1005C00000404FF487771023C82239463C2004F0BE
:1005D0007BFB00250123082239466E20CDE900452A
:1005E00004F031FBA8A0CDE900401023C822394611
:1005F0008C2004F069FB022332463946AA20CDE95B
:10060000004504F020FBBDE8FC810EB54FF4A0606E
:1006100005F096FAA82005F093F900F021FA00F011
:1006200098FE04F0D3FC4FF4E13005F0EDF95321CE
:1006300042F20F7005F028F995494FF47840088090
:10064000AFF294001024CDE900402346C822822155
:100650001E2004F039FBA34617E08EA1CDE900B1BE
:100660001023F02282211E2004F02EFBC82005F06A
:10067000A8F94FF6FF700090AA23EF2282211E20D6
:1006800004F00EF9C82005F09CF904F04DFD002897
:10069000E3D14FF4904182480AF086FAFFF77EFDDD
:1006A000804C02900120207004F0DEFD04F08BFBF2
:1006B0004FF48063DA004CF210417B4804F04FFBAA
:1006C00000214FF4A073E022084600F066FDE0210F
:1006D000084604F01BFF04F006FC4FF0000A84F803
:1006E00001A072490220087004F08EFC6D48417828
:1006F0000129F9D14FF0020880F801800021084655
:1007000000F01FFA00F004FA684F0024664A3B78B4
:100710004FF47A750A2620464FF44449022B05D13E
:100720004FF0D84132F810C0A1F880C012F8101074
:1007300001F01F01A14200D90C46A94200D20D468A
:10074000B1420BD2E021B0FBF1FCBCF1140F05DB90
:10075000B0FBF1FC01FB1C010A290BD2032B05D1D4
:100760004FF0D84C4FF6FF71ACF88010FF2122F803
:10077000101007E0032B03D14FF0D84CACF880A049
:1007800022F810A0401C4845C8D31C23E0211A467B
:100790000846FFF7C5FD3878B946012830D14449ED
:1007A0000020A1F569724FF444730F5C1754401C8C
:1007B00080B29842F9D302980AF04AFE00273C49D9
:1007C000384694390A56A24201DD94B2C7B2401CA1
:1007D00080B20A28F6D32CA1CDE900B11023C8229B
:1007E0004FF48771642004F06FFACDE900BA022358
:1007F0003A464FF48771A02004F025FA89F800806A
:100800002CA0CDE900B05F461023C822E6210A20C3
:1008100004F05AFACDE9007AD04603232246E621B5
:10082000282004F010FA25A0CDE900701023C8227A
:10083000E621502004F048FACDE9007803232A4647
:10084000E6216E2004F0FFF91EA0CDE90070102310
:10085000C822E621962004F037FACDE90078032378
:100860003246E621B42004F0EEF918484CF210416B
:100870000160001F05F075FE04F035FB34E7000051
:100880004C6162656C3A00005072653A00000000ED
:10089000180000204F5632363430204552520000A6
:1008A0002C8F0120000000200C0700201E000020DB
:1008B000FC0300206D61783A000000006D696E3A1B
:1008C000000000007365673A000000002C640240DD
:1008D0007047FEE7FEE7FEE7FEE7704770477047A8
:1008E000704700000CB500205449019000900A6840
:1008F00042F480320A604FF4A0430A6802F40032E6
:100900000092019A521C0192009A12B9019A9A42DD
:10091000F3D10A68920334D5012000904748403053
:10092000026842F0805202604548026842F4404248
:1009300002604248083002680260026842F40042E5
:100940000260026842F4A0520260031F3D4A1A602E
:100950000A6842F080720A600A689201FCD53A4A3D
:1009600040F205711160016821F003010160016826
:1009700041F0020101600168C1F381010229FAD14D
:100980000CBD00900CBD314810B5016841F47001F8
:1009900001602A48016841F001010160274A0021F5
:1009A0000832116002682A4B1A400260031D294A6E
:1009B0001A60026822F48022026020480C30016034
:1009C000FFF790FF21494FF000608039086010BDAB
:1009D00070B51A4C083420681F4A10F00C011F48EB
:1009E00004D05510042903D0082903D002601BE06D
:1009F000056019E01149091D0B68C3F380560B68A7
:100A000003F03F0316B1B5FBF3F201E0B2FBF3F2E2
:100A10000B680968C3F388135A43C1F30141491CA9
:100A20004900B2FBF1F1016021680C4AC1F30311E6
:100A3000121D515C0268CA40026070BD003802405D
:100A40000070004008544007003C024088ED00E080
:100A5000FFFFF6FE103000240024F4000400002004
:100A60007CB50121202005F096FF01208DF80400BF
:100A700000218DF8061003218DF80510074D4FF465
:100A8000C0648DF8070000946946284605F0B6F961
:100A90002146284605F02CFA7CBD000000140240D7
:100AA00001B5BDF80000ADF80000BDF800004FF042
:100AB000D841A1F87E0008BD01B5BDF80000ADF831
:100AC0000000BDF800004FF0D841A1F8800008BD3B
:100AD00008B54FF0D840B0F88000ADF80000BDF880
:100AE000000008BD03B5BDF800104FF0D84020F855
:100AF0007E1FBDF8041041800CBD01B5BDF800009B
:100B0000FFF7CEFF052004F02EFFBDE80840DFE729
:100B1000FE484FF0D8410089A1F87E0070474FF0A1
:100B2000D841A1F880007047C0F34511C20AC00245
:100B300000EB4110104480B27047401EC0B2FCD29E
:100B40007047F0B5F14E02463346B0880C464FEA86
:100B5000112C150A5B89A0F51341413915D0A0F578
:100B6000A641103911D0B646B1793688A0F5D047E4
:100B7000B61A761E043F13D07746A0F5A04EBEF5F8
:100B8000A26E21D001293CD03CE01846FFF788FF37
:100B90002846FFF791FFD0B2FFF78EFFB0890DE036
:100BA0007546012900D1B2B21846FFF779FF100A45
:100BB000FFF782FFD0B2FFF77FFFA889FFF770FF32
:100BC0006046FFF779FF18E01846FFF769FF2846EF
:100BD000FFF772FF7889401C80B2FFF761FFD0B247
:100BE000FFF76AFFB889FFF75BFF6046FFF764FF16
:100BF000B889401C80B2FFF753FFE0B2BDE8F04077
:100C00005AE7B2B211461846FFF76CFFB889214681
:100C1000BDE8F04066E77FB50022ADF80020ADF8F2
:100C20000420ADF80820B94C2288824202D962889B
:100C30008A4202D8002004B070BDFFF782FFA0886E
:100C400049F2413245F2103545F21056904205D036
:100C5000A0F5D041043901D0A84201D12E2005E0F1
:100C6000B04202D14FF4385000E02220FFF718FFC5
:100C7000A088A0F51341203903D10120401EC0B245
:100C8000FCD24FF0D840B0F88000ADF80C00BDF8B1
:100C90000C000120401EC0B2FCD2FFF719FFADF8D6
:100CA0000000A088904203D0A84201D0B04214D1E5
:100CB0000120401EC0B2FCD2FFF70AFFADF80800C9
:100CC000BDF80000C0B2ADF80400BDF804004FF656
:100CD000FF7101EA0020ADF80400A088A0F51341DF
:100CE000253923D0A0F58A4135391FD0A0F58A4196
:100CF00031391BD0A0F53541053917D0A0F5454154
:100D0000053913D0904203D0A84201D0B04210D18F
:100D1000BDF80000BDF804106FF30A00890A40EA2C
:100D20004110BDF8081040EAD12084E7BDF800006A
:100D300081E7BDF8000004B0BDE87040F4E67348F8
:100D40008088A0F5134141390FD0A0F5D041043976
:100D50000BD0A0F5A641103907D0A0F5AA41103953
:100D600005D040F273110720BCE6292001E04FF4C2
:100D7000245095E665488088A0F5134141390ED08E
:100D8000A0F5D04104390AD0A0F5A641103906D00B
:100D9000A0F5AA41103904D000210720A2E628209E
:100DA00001E04FF420507BE6F0B5584D0024294671
:100DB000AA79898846F60407012A18D1B94216D0C3
:100DC000082814D2DFE800F00406080A0C0E1012FE
:100DD00006200CE007200AE0042008E0052006E0D9
:100DE000012004E0002002E0032000E00220A1F541
:100DF000134345F2103245F21056413B05D0B9423B
:100E000003D0914201D0B1427ED1082812D2DFE84E
:100E100000F0110406080A0C0E1080240AE0402499
:100E200008E0C02406E0202404E0602402E0A024BE
:100E300000E0E024B14202D14FF4585000E03620E7
:100E4000914203D0B14201D044F00804B94201D12B
:100E500044F002042146FFF745FEA00609D4A87914
:100E6000012806D028886988884211D9298068809D
:100E70000EE028886988884201D229806880A87994
:100E8000012805D1A888B84202D06A882C8801E0E0
:100E90002A886C88A888B042688941D1FFF700FE93
:100EA0000020FFF709FE6889401C80B2FFF7F8FDBB
:100EB0000020FFF701FE6889801C80B2FFF7F0FD7B
:100EC000521EC2F30F20FFF7F7FD6889C01C80B2E5
:100ED000FFF7E6FDD0B2FFF7EFFDA889FFF7E0FDD1
:100EE0000020FFF7E9FDA889401C80B2FFF7D8FD7C
:100EF0000020FFF7E1FDA889801C80B2FFF7D0FD3C
:100F0000641EC4F30F2003E02CE000002CD7012066
:100F1000FFF7D2FDA889C01C80B2FFF7C1FD1DE01C
:100F2000FFF7BEFD0020FFF7C7FD0020FFF7C4FD5F
:100F3000521EC2F30F20FFF7BFFDD0B2FFF7BCFD7A
:100F4000A889FFF7ADFD0020FFF7B6FD0020FFF7F1
:100F5000B3FD641EC4F30F20FFF7AEFDE0B2BDE8A1
:100F6000F040A9E5082812D2DFE800F004060811D5
:100F70000A0C0E1030240AE0102408E0202406E0B9
:100F8000382404E0282402E0182400E00824A1F515
:100F90000940893805D0032044F48051BDE8F04071
:100FA000A0E5112046F240012143F7E700B5FFF725
:100FB000C8FDFFF7ADFDFE484FF0D8410088A1F80D
:100FC000800000BD2DE9F041FA4C90460246A08811
:100FD00023460D460E0A170A5B89A0F513414139D5
:100FE00014D0A0F5A641103910D0A0F5AA411039AF
:100FF00011D02746A0F5D04CB9793F88BF1A7F1E83
:10100000BCF1040C21D0012935D035E01846FFF79A
:1010100047FD384620E01846FFF742FD3846FFF707
:101020004BFD6089401C80B2FFF73AFDD0B2FFF75C
:1010300043FDA089FFF734FD3046FFF73DFDA08951
:10104000401C80B2FFF72CFD11E0012900D1BAB29B
:101050001846FFF725FD100AFFF72EFDD0B2FFF767
:101060002BFDA089FFF71CFD3046FFF725FDE8B2F8
:10107000FFF722FD08E0BAB211461846FFF732FD2D
:10108000A0892946FFF72EFD4FF0D8402189A0F80E
:101090007E10A0F88080BDE8F0812DE9F04FC549B1
:1010A0002C252A2689882B2745F2105A4FF4305BCD
:1010B0004FF4285E4FF0F00C49F241394FF4A07222
:1010C00045F2103346F6040478B1BA484FF00108EF
:1010D000494580F806800280A0F802C001D09942FC
:1010E00033D10581468187814BE0B2484FF000083B
:1010F000494580F80680A0F800C0428003D0A14294
:1011000001D099420AD1058146818781A14201D04F
:1011100099423ED102804FF4F0710DE051450DD15E
:10112000A0F808B0A0F80AE04FF42C5181814FF4E8
:10113000F07101804FF4487141802AE02221018141
:10114000202141812121818123E0A14203D1058118
:101150004781868115E051450DD1A0F808B0A0F86F
:101160000AE04FF42C5585814FF4487505804FF403
:10117000F075458005E02225058121254581202542
:101180008581A14201D0994203D14FF4F0710180D1
:101190004280BDE8F04F002006E62DE9F047054605
:1011A0001044401E1FFA80FCC818824A401E0C469C
:1011B00087B2918810462E0A4089A1F513434FEA61
:1011C0001428413B2BD0A1F5A643103B27D0A1F515
:1011D000D043043B23D0A1F5AA43103B3CD09079E7
:1011E000012878D066462946A44650204FF0510A7F
:1011F0004FF052094FF05308FFF774FC3146504648
:10120000FFF770FC61464846FFF76CFC39464046E4
:10121000FFF768FC21462846BDE8F04791E4FFF758
:101220003FFC3046FFF748FCE8B2FFF745FC4FEAC9
:101230001C20FFF741FC0CF0FF00FFF73DFC9089FC
:10124000FFF72EFC4046FFF737FCE0B2FFF734FC17
:10125000380AFFF731FC39E0FFF722FC3046FFF790
:101260002BFC5089401C80B2FFF71AFCE8B2FFF754
:1012700023FC5089801C80B2FFF712FC4FEA1C202F
:10128000FFF71AFC5089C01C80B2FFF709FC0CF074
:10129000FF00FFF711FC9089FFF702FC4046FFF7C3
:1012A0000BFC9089401C80B2FFF7FAFBE0B2FFF71D
:1012B00003FC9089801C80B2FFF7F2FB380AFFF72D
:1012C000FBFB9089C01C80B2FFF7EAFBF8B2BDE8D7
:1012D000F047FFF7F1BB10883E46A0EB0C02521E10
:1012E000401B401E21461FFA82FC87B27DE72DE994
:1012F000F043304C81460025208866884643A0880C
:10130000A0F5D041043902D1A079012809D00021EB
:101310000846FFF716FC00BFFFF7FAFB4FF0D84076
:1013200013E00020A0712A2767814FF02B08A4F852
:101330000C800146FFF705FC0120A071A4F80A808B
:10134000A781E9E7A0F880906D1CB542FAD3BDE80B
:10135000F0832DE9F04FA1B0002401217A201194EF
:1013600005F019FB0121084605F029FB01208DF845
:1013700004008DF8064002208DF8050001204FF48E
:1013800000498DF80700CDF8009069460A4804F03E
:1013900035FD4CF23370009002208DF804008DF87A
:1013A000064003208DF8050001208DF8070005E0B8
:1013B000180000202CD70120000402406946FE4896
:1013C00004F01CFD4FF68070009002208DF80400A0
:1013D0008DF8064003208DF805000120F74D8DF8AB
:1013E00007006946284604F009FDA8140090022071
:1013F0008DF804008DF8064003208DF805000120CB
:10140000EF4E8DF807006946304604F0F7FCA8144B
:10141000009002208DF804008DF8064003208DF81E
:1014200005000120E74F8DF807006946384604F0B3
:10143000E5FC0C220021E04804F069FD0C220121AA
:10144000DD4804F064FD0C220421DB4804F05FFD5C
:101450000C220521D84804F05AFD0C220821D64858
:1014600004F055FD0C220921D34804F050FD0C2254
:101470000A21D14804F04BFD0C220E21CE4804F085
:1014800046FD0C220F21CC4804F041FD0C2207211F
:10149000284604F03CFD0C220821284604F037FDC4
:1014A0000C220921284604F032FD0C220A2128468C
:1014B00004F02DFD0C220B21284604F028FD0C22FF
:1014C0001146284604F023FD0C220D21284604F085
:1014D0001EFD0C220E21284604F019FD0C220F21BE
:1014E000284604F014FD0C221146304604F00FFD8E
:1014F0000C221146384604F00AFD0F20CDE91204F3
:101500001820CDE9140408201694CDE91840CDE93F
:101510001A4017941C940620CDE902041D941E94D1
:101520001020CDE904401F9406940002CDE90A4042
:10153000089407948000CDE90C40099412A8CDE9E5
:101540000E4019A8109002A804F01CFD01210620ED
:1015500004F091FD322004F034FA01210020FFF75D
:10156000C1FA322004F02DFA0020FFF7C6FA964A9D
:101570004FF0204C4FF6FF78908049F2413445F20D
:10158000103545F2105646F60407FF2804D34045AF
:1015900002D0B0F5134F5ED1D320FFF781FAFFF7E9
:1015A00097FA9080FFF794FA9080FFF791FA08EA93
:1015B00000209080FFF78CFA918808439080A04229
:1015C00049D0BF20FFF76CFAFFF782FA9080FFF74F
:1015D0007FFA9080FFF77CFA9080FFF779FA08EAAB
:1015E00000209080FFF774FA918808439080B842F9
:1015F00031D0D420FFF754FAFFF76AFA9080FFF752
:1016000067FA9080FFF764FA08EA00209080FFF7FD
:101610005FFA918808439080A8421CD04FF45A404A
:10162000FFF73EFAFFF754FA90804FF45B40FFF764
:1016300037FAFFF74DFA08EA002090804FF45C403B
:10164000FFF72EFAFFF744FA918808439080484547
:1016500001D1968006E080B2A04203D0A84201D01A
:10166000B04216D1DCF81C0120F00F00CCF81C01B0
:10167000DCF81C0120F47060CCF81C01DCF81C01C3
:1016800040F00300CCF81C01DCF81C0140F40070B1
:101690001BE0B84203D0A0F54541053917D1DCF86D
:1016A0001C0120F00F00CCF81C01DCF81C0120F418
:1016B0007060CCF81C01DCF81C0140F00A00CCF88A
:1016C0001C01DCF81C0140F44060CCF81C0190883F
:1016D000A04270D1CF20FFF7E3F90020FFF7ECF92B
:1016E0001198401C1190C120FFF7E6F93020FFF758
:1016F000E3F9ED20FFF7D4F96420FFF7DDF90320CB
:10170000FFF7DAF91220FFF7D7F98120FFF7D4F9B4
:10171000E820FFF7C5F98520FFF7CEF91020FFF785
:10172000CBF97A20FFF7C8F9CB20FFF7B9F93920B8
:10173000FFF7C2F92C20FFF7BFF90020FFF7BCF933
:101740003420FFF7B9F90220FFF7B6F9F720FFF7C9
:10175000A7F92020FFF7B0F9EA20FFF7A1F9002050
:10176000FFF7AAF90020FFF7A7F9C020FFF798F9C3
:101770001B20FFF7A1F9C120FFF792F90120FFF725
:101780009BF9C520FFF78CF93020FFF795F9302041
:10179000FFF792F9C720FFF783F9B720FFF78CF91D
:1017A0003620FFF77DF94820FFF786F93A20FFF74A
:1017B00077F955200AE0ABE0000C0240001002402F
:1017C00000140240001802402CD70120FFF774F9E2
:1017D000B120FFF765F90020FFF76EF91A20FFF737
:1017E0006BF9B620FFF75CF90A20FFF765F9A22034
:1017F000FFF762F9F220FFF753F90020FFF75CF9D9
:101800002620FFF74DF90120FFF756F9E020FFF7FA
:1018100047F90F20FFF750F92A20FFF74DF928204C
:10182000FFF74AF90820FFF747F90E20FFF744F9C0
:101830000820FFF741F95420FFF73EF9A920FFF7F0
:101840003BF94320FFF738F90A20FFF735F90F205D
:10185000FFF732F90020FFF72FF90020FFF72CF9EE
:101860000020FFF729F90020FFF726F9E120FFF714
:1018700017F90020FFF720F91520FFF71DF91720B1
:10188000FFF71AF90720FFF717F91120FFF714F9EE
:101890000620FFF711F92B20FFF70EF95620FFF76E
:1018A0000BF93C20FFF708F90520FFF705F9102098
:1018B000FFF702F90F20FFF7FFF83F20FFF7FCF8D2
:1018C0003F20FFF7F9F80F20FFF7F6F82B20FFF77E
:1018D000E7F80020FFF7F0F80020FFF7EDF801200F
:1018E000FFF7EAF83F20FFF7E7F82A20FFF7D8F8DC
:1018F0000020FFF7E1F80020FFF7DEF80020FFF7F7
:10190000DBF8EF20FFF7D8F81120FFF7C9F8A5E0C2
:10191000B8427CD11120FFF7C3F8142004F051F82D
:10192000D020FFF7BDF80720FFF7C6F84220FFF7E9
:10193000C3F81D20FFF7C0F8D120FFF7B1F8002051
:10194000FFF7BAF81A20FFF7B7F80920FFF7B4F845
:10195000D220FFF7A5F80120FFF7AEF82220FFF70D
:10196000ABF8C020FFF79CF81020FFF7A5F83B204C
:10197000FFF7A2F80020FFF79FF80220FFF79CF87E
:101980001120FFF799F8C520FFF78AF80320FFF729
:1019900093F8C820FFF784F80020FFF78DF8252082
:1019A000FFF78AF82120FFF787F80520FFF784F872
:1019B0000020FFF781F80A20FFF77EF86520FFF787
:1019C0007BF82520FFF778F87720FFF775F850208F
:1019D000FFF772F80F20FFF76FF80020FFF76CF8A1
:1019E000F820FFF75DF80120FFF766F8FE20FFF70B
:1019F00057F80020FFF760F80220FFF75DF820207D
:101A0000FFF74EF83620FFF74BF8082000E02BE0F8
:101A1000FFF752F83A20FFF743F85520FFF74CF84C
:101A20002B20FFF73DF80020FFF746F80020FFF7D6
:101A300043F80120FFF740F83F20FFF73DF82A2048
:101A4000FFF72EF80020FFF737F80020FFF734F8F3
:101A50000120FFF731F8DF20FFF72EF8782003F0A0
:101A6000B0FF292001F0FBBEA8427CD1ED20FFF79A
:101A700017F80120FFF720F8FE20FFF71DF8EE20F1
:101A8000FFF70EF8DE20FFF717F82120FFF714F814
:101A9000F120FFF705F80120FFF70EF8DF20FEF731
:101AA000FFFF1020FFF708F8C420FEF7F9FF8F2092
:101AB000FFF702F8C620FEF7F3FF0020FEF7FCFF59
:101AC000E220FEF7F9FFE220FEF7F6FFE220FEF744
:101AD000F3FFBF20FEF7E4FFAA20FEF7EDFFB020E2
:101AE000FEF7DEFF0D20FEF7E7FF0020FEF7E4FF24
:101AF0000D20FEF7E1FF0020FEF7DEFF1120FEF7CC
:101B0000DBFF0020FEF7D8FF1920FEF7D5FF0020ED
:101B1000FEF7D2FF2120FEF7CFFF0020FEF7CCFF1B
:101B20002D20FEF7C9FF0020FEF7C6FF3D20FEF77F
:101B3000C3FF0020FEF7C0FF5D20FEF7BDFF0020C1
:101B4000FEF7BAFF5D20FEF7B7FF0020FEF7B4FFF7
:101B5000B120FEF7A5FF8020FEF7AEFF0020FEF7C4
:101B6000ABFF8B2000E0FCE3FEF7A6FF0020FEF7B2
:101B7000A3FF9620FEF7A0FF0020FEF79DFFB220F6
:101B8000FEF78EFF0020FEF797FF0020FEF794FF80
:101B90000220FEF791FF0020FEF78EFF0320FEF7E4
:101BA0008BFF0020FEF788FFB320FEF779FF0020AF
:101BB000FEF782FF0020FEF77FFF0020FEF77CFF8C
:101BC0000020FEF779FF0020FEF776FF0020FEF7E9
:101BD00073FF0020FEF770FF0020FEF76DFF00206E
:101BE000FEF76AFF0020FEF767FF0020FEF764FFA4
:101BF0000020FEF761FF0020FEF75EFF0020FEF7E9
:101C00005BFF0020FEF758FF0020FEF755FF002085
:101C1000FEF752FF0020FEF74FFF0020FEF74CFFBB
:101C20000020FEF749FF0020FEF746FF0020FEF7E8
:101C300043FF0020FEF740FF0020FEF73DFFB420E9
:101C4000FEF72EFF8B20FEF737FF0020FEF734FF54
:101C50009620FEF731FF0020FEF72EFFA120FEF7B1
:101C60002BFF0020FEF728FFB520FEF719FF02200A
:101C7000FEF722FF0020FEF71FFF0320FEF71CFFE8
:101C80000020FEF719FF0420FEF716FF0020FEF7E4
:101C900013FFB620FEF704FF0020FEF70DFF002023
:101CA000FEF70AFFB720FEF7FBFE0020FEF704FF59
:101CB0000020FEF701FF3F20FEF7FEFE0020FEF7AA
:101CC000FBFE5E20FEF7F8FE0020FEF7F5FE642026
:101CD000FEF7F2FE0020FEF7EFFE8C20FEF7ECFE92
:101CE0000020FEF7E9FEAC20FEF7E6FE0020FEF73E
:101CF000E3FEDC20FEF7E0FE0020FEF7DDFE7020B4
:101D0000FEF7DAFE0020FEF7D7FE9020FEF7D4FEA5
:101D10000020FEF7D1FEEB20FEF7CEFE0020FEF7FE
:101D2000CBFEDC20FEF7C8FE0020FEF7C5FEB82083
:101D3000FEF7B6FE0020FEF7BFFE0020FEF7BCFE59
:101D40000020FEF7B9FE0020FEF7B6FE0020FEF7E9
:101D5000B3FE0020FEF7B0FE0020FEF7ADFE00202F
:101D6000FEF7AAFEBA20FEF79BFE2420FEF7A4FE93
:101D70000020FEF7A1FE0020FEF79EFE0020FEF7E9
:101D80009BFEC120FEF78CFE2020FEF795FE002072
:101D9000FEF792FE5420FEF78FFE0020FEF78CFE29
:101DA000FF20FEF789FE0020FEF786FEC220FEF728
:101DB00077FE0A20FEF780FE0020FEF77DFE04205D
:101DC000FEF77AFE0020FEF777FEC320FEF768FEDE
:101DD0003C20FEF771FE0020FEF76EFE3A20FEF773
:101DE0006BFE0020FEF768FE3920FEF765FE00203E
:101DF000FEF762FE3720FEF75FFE0020FEF75CFE76
:101E00003C20FEF759FE0020FEF756FE3620FEF776
:101E100053FE0020FEF750FE3220FEF74DFE00205C
:101E2000FEF74AFE2F20FEF747FE0020FEF744FE95
:101E30002C20FEF741FE0020FEF73EFE2920FEF793
:101E40003BFE0020FEF738FE2620FEF735FE002080
:101E5000FEF732FE2420FEF72FFE0020FEF72CFEB8
:101E60002420FEF729FE0020FEF726FE2320FEF7A1
:101E700023FE0020FEF720FE3C20FEF71DFE002082
:101E8000FEF71AFE3620FEF717FE0020FEF714FEBE
:101E90003220FEF711FE0020FEF70EFE2F20FEF787
:101EA0000BFE0020FEF708FE2C20FEF705FE0020AA
:101EB000FEF702FE2920FEF7FFFD0020FEF7FCFDE5
:101EC0002620FEF7F9FD0020FEF7F6FD2420FEF7A0
:101ED000F3FD0020FEF7F0FD2420FEF7EDFD0020CD
:101EE000FEF7EAFD2320FEF7E7FD0020FEF7E4FD04
:101EF000C420FEF7D5FD6220FEF7DEFD0020FEF7D0
:101F0000DBFD0520FEF7D8FD0020FEF7D5FD84207F
:101F1000FEF7D2FD0020FEF7CFFDF020FEF7CCFD4E
:101F20000020FEF7C9FD1820FEF7C6FD0020FEF7D1
:101F3000C3FDA420FEF7C0FD0020FEF7BDFD182064
:101F4000FEF7BAFD0020FEF7B7FD5020FEF7B4FD06
:101F50000020FEF7B1FD0C20FEF7AEFD0020FEF7DD
:101F6000ABFD1720FEF7A8FD0020FEF7A5FD95208C
:101F7000FEF7A2FD0020FEF79FFDF320FEF79CFD7B
:101F80000020FEF799FDE620FEF796FD0020FEF703
:101F900093FDC520FEF784FD3220FEF78DFD002065
:101FA000FEF78AFD4420FEF787FD0020FEF784FD42
:101FB0006520FEF781FD0020FEF77EFD7620FEF70E
:101FC0007BFD0020FEF778FD8820FEF775FD0020E0
:101FD000FEF772FDC620FEF763FD2020FEF76CFDC4
:101FE0000020FEF769FD1720FEF766FD0020FEF7D2
:101FF00063FD0120FEF760FD0020FEF75DFDC720B8
:10200000FEF74EFD0020FEF757FD0020FEF754FDC1
:102010000020FEF751FD0020FEF74EFDC820FEF720
:102020003FFD0020FEF748FD0020FEF745FD0020A3
:10203000FEF742FD0020FEF73FFDC920FEF730FD10
:102040000020FEF739FD0020FEF736FD0020FEF7E8
:1020500033FD0020FEF730FD0020FEF72DFD0020AF
:10206000FEF72AFD0020FEF727FD0020FEF724FDE5
:102070000020FEF721FD0020FEF71EFD0020FEF7E8
:102080001BFD0020FEF718FD0020FEF715FD0020C7
:10209000FEF712FD0020FEF70FFD0020FEF70CFDFD
:1020A000E020FEF7FDFC1620FEF706FD0020FEF7FF
:1020B00003FD1C20FEF700FD0020FEF7FDFC2120A3
:1020C000FEF7FAFC0020FEF7F7FC3620FEF7F4FCE2
:1020D0000020FEF7F1FC4620FEF7EEFC0020FEF7A4
:1020E000EBFC5220FEF7E8FC0020FEF7E5FC642044
:1020F000FEF7E2FC0020FEF7DFFC7A20FEF7DCFCB6
:102100000020FEF7D9FC8B20FEF7D6FC0020FEF75E
:10211000D3FC9920FEF7D0FC0020FEF7CDFCA820D0
:10212000FEF7CAFC0020FEF7C7FCB920FEF7C4FC8E
:102130000020FEF7C1FCC420FEF7BEFC0020FEF725
:10214000BBFCCA20FEF7B8FC0020FEF7B5FCD2208D
:10215000FEF7B2FC0020FEF7AFFCD920FEF7ACFC86
:102160000020FEF7A9FCE020FEF7A6FC0020FEF709
:10217000A3FCF320FEF7A0FC0020FEF79DFCE1206D
:10218000FEF78EFC1620FEF797FC0020FEF794FC6D
:102190001C20FEF791FC0020FEF78EFC2220FEF7AB
:1021A0008BFC0020FEF788FC3620FEF785FC002023
:1021B000FEF782FC4520FEF77FFC0020FEF77CFC4A
:1021C0005220FEF779FC0020FEF776FC6420FEF733
:1021D00073FC0020FEF770FC7A20FEF76DFC0020F7
:1021E000FEF76AFC8B20FEF767FC0020FEF764FC1C
:1021F0009920FEF761FC0020FEF75EFCA820FEF7A8
:102200005BFC0020FEF758FCB920FEF755FC0020CF
:10221000FEF752FCC420FEF74FFC0020FEF74CFCFA
:10222000CA20FEF749FC0020FEF746FCD220FEF74C
:1022300043FC0020FEF740FCD820FEF73DFC0020C8
:10224000FEF73AFCE020FEF737FC0020FEF734FCF6
:10225000F320FEF731FC0020FEF72EFCE220FEF713
:102260001FFC0520FEF728FC0020FEF725FC0B20B4
:10227000FEF722FC0020FEF71FFC1B20FEF71CFCD3
:102280000020FEF719FC3420FEF716FC0020FEF7B4
:1022900013FC4420FEF710FC0020FEF70DFC4F203D
:1022A000FEF70AFC0020FEF707FC6120FEF704FCA5
:1022B0000020FEF701FC7920FEF7FEFB0020FEF770
:1022C000FBFB8820FEF7F8FB0020FEF7F5FB9720CC
:1022D000FEF7F2FB0020FEF7EFFBA620FEF7ECFB7B
:1022E0000020FEF7E9FBB720FEF7E6FB0020FEF733
:1022F000E3FBC220FEF7E0FB0020FEF7DDFBC7207A
:10230000FEF7DAFB0020FEF7D7FBD120FEF7D4FB67
:102310000020FEF7D1FBD620FEF7CEFB0020FEF713
:10232000CBFBDD20FEF7C8FB0020FEF7C5FBF3204A
:10233000FEF7C2FB0020FEF7BFFBE320FEF7B0FB79
:102340000520FEF7B9FB0020FEF7B6FB0A20FEF7DA
:10235000B3FB0020FEF7B0FB1C20FEF7ADFB002016
:1023600000E0FDE2FEF7A8FB3320FEF7A5FB00200E
:10237000FEF7A2FB4420FEF79FFB0020FEF79CFB2C
:102380005020FEF799FB0020FEF796FB6220FEF737
:1023900093FB0020FEF790FB7820FEF78DFB0020DA
:1023A000FEF78AFB8820FEF787FB0020FEF784FB00
:1023B0009720FEF781FB0020FEF77EFBA620FEF7AC
:1023C0007BFB0020FEF778FBB720FEF775FB0020B3
:1023D000FEF772FBC220FEF76FFB0020FEF76CFBDE
:1023E000C720FEF769FB0020FEF766FBD120FEF751
:1023F00063FB0020FEF760FBD520FEF75DFB0020AD
:10240000FEF75AFBDD20FEF757FB0020FEF754FBDA
:10241000F320FEF751FB0020FEF74EFBE420FEF711
:102420003FFB0120FEF748FB0020FEF745FB0120A3
:10243000FEF742FB0020FEF73FFB0220FEF73CFBCD
:102440000020FEF739FB2A20FEF736FB0020FEF7BE
:1024500033FB3C20FEF730FB0020FEF72DFB4B202A
:10246000FEF72AFB0020FEF727FB5D20FEF724FB8A
:102470000020FEF721FB7420FEF71EFB0020FEF774
:102480001BFB8420FEF718FB0020FEF715FB9320B2
:10249000FEF712FB0020FEF70FFBA220FEF70CFB5D
:1024A0000020FEF709FBB320FEF706FB0020FEF735
:1024B00003FBBE20FEF700FB0020FEF7FDFAC42060
:1024C000FEF7FAFA0020FEF7F7FACD20FEF7F4FA4D
:1024D0000020FEF7F1FAD320FEF7EEFA0020FEF717
:1024E000EBFADD20FEF7E8FA0020FEF7E5FAF3202C
:1024F000FEF7E2FA0020FEF7DFFAE520FEF7D0FA59
:102500000020FEF7D9FA0020FEF7D6FA0020FEF7E9
:10251000D3FA0020FEF7D0FA0220FEF7CDFA002011
:10252000FEF7CAFA2920FEF7C7FA0020FEF7C4FA20
:102530003C20FEF7C1FA0020FEF7BEFA4B20FEF762
:10254000BBFA0020FEF7B8FA5D20FEF7B5FA0020CE
:10255000FEF7B2FA7420FEF7AFFA0020FEF7ACFAED
:102560008420FEF7A9FA0020FEF7A6FA9320FEF7D2
:10257000A3FA0020FEF7A0FAA220FEF79DFA0020A1
:10258000FEF79AFAB320FEF797FA0020FEF794FAC6
:10259000BE20FEF791FA0020FEF78EFAC420FEF767
:1025A0008BFA0020FEF788FACD20FEF785FA00208E
:1025B000FEF782FAD320FEF77FFA0020FEF77CFABE
:1025C000DC20FEF779FA0020FEF776FAF320FEF71A
:1025D00073FA0020FEF770FAE620FEF761FA112088
:1025E000FEF76AFA0020FEF767FA3420FEF764FA75
:1025F0000020FEF761FA5620FEF75EFA0020FEF793
:102600005BFA7620FEF758FA0020FEF755FA77209D
:10261000FEF752FA0020FEF74FFA6620FEF74CFA5A
:102620000020FEF749FA8820FEF746FA0020FEF760
:1026300043FA9920FEF740FA0020FEF73DFABB204E
:10264000FEF73AFA0020FEF737FA9920FEF734FA3F
:102650000020FEF731FA6620FEF72EFA0020FEF782
:102660002BFA5520FEF728FA0020FEF725FA552010
:10267000FEF722FA0020FEF71FFA4520FEF71CFAAB
:102680000020FEF719FA4320FEF716FA0020FEF7A5
:1026900013FA4420FEF710FA0020FEF70DFAE720A7
:1026A000FEF7FEF93220FEF707FA0020FEF704FAE3
:1026B0005520FEF701FA0020FEF7FEF97620FEF71E
:1026C000FBF90020FEF7F8F96620FEF7F5F9002087
:1026D000FEF7F2F96720FEF7EFF90020FEF7ECF9BC
:1026E0006720FEF7E9F90020FEF7E6F98720FEF7FC
:1026F000E3F90020FEF7E0F99920FEF7DDF900206C
:10270000FEF7DAF9BB20FEF7D7F90020FEF7D4F97F
:102710009920FEF7D1F90020FEF7CEF97720FEF7D9
:10272000CBF90020FEF7C8F94420FEF7C5F90020D8
:10273000FEF7C2F95620FEF7BFF90020FEF7BCF9FC
:102740002320FEF7B9F90020FEF7B6F93320FEF793
:10275000B3F90020FEF7B0F94520FEF7ADF90020EF
:10276000FEF7AAF9E820FEF79BF90020FEF7A4F98E
:102770000020FEF7A1F99920FEF79EF90020FEF750
:102780009BF98720FEF798F90020FEF795F988203D
:10279000FEF792F90020FEF78FF97720FEF78CF90B
:1027A0000020FEF789F96620FEF786F90020FEF783
:1027B00083F98820FEF780F90020FEF77DF9AA2032
:1027C000FEF77AF90020FEF777F9BB20FEF774F9DF
:1027D0000020FEF771F99920FEF76EF90020FEF750
:1027E0006BF96620FEF768F90020FEF765F95520C1
:1027F000FEF762F90020FEF75FF95520FEF75CF95D
:102800000020FEF759F94420FEF756F90020FEF7A4
:1028100053F94420FEF750F90020FEF74DF95520FA
:10282000FEF74AF90020FEF747F9E920FEF738F9EC
:10283000AA20FEF741F90020FEF73EF90020FEF73E
:102840003BF90020FEF738F90020FEF729F9AA200D
:10285000FEF732F9CF20FEF723F90020FEF72CF91E
:102860000020FEF729F90020FEF726F90020FEF7E8
:1028700023F90020FEF720F90020FEF71DF90020C3
:10288000FEF71AF90020FEF717F90020FEF714F9F9
:102890000020FEF711F90020FEF70EF90020FEF7E8
:1028A0000BF90020FEF708F90020FEF705F90020DB
:1028B000FEF702F90020FEF7FFF80020FEF7FCF813
:1028C000F020FEF7EDF80020FEF7F6F85020FEF7B6
:1028D000F3F80020FEF7F0F80020FEF7EDF80020F6
:1028E000FEF7EAF8F320FEF7DBF80020FEF7E4F845
:1028F000F920FEF7D5F80620FEF7DEF81020FEF7E7
:10290000DBF82920FEF7D8F80020FEF7D5F83A20AA
:10291000FEF7C6F85520FEF7CFF81120FEF7C0F8F5
:10292000642003F04EF82920FEF7BAF83520FEF7B0
:10293000B7F80020FEF7C0F85120FEF7B1F8FF20ED
:10294000FEF7BAF85320FEF7ABF82C20FEF7B4F8E8
:102950005520FEF7A5F88220FEF7AEF82C20FCE308
:10296000B0427DD14FF4704455212046FEF7BAF8AD
:10297000651CAA212846FEF7B5F8A61C5221304650
:10298000FEF7B0F8E71C08213846FEF7ABF84FF227
:10299000040C01216046FEF7A5F80D214FF43040EC
:1029A000FEF7A0F80D214BF20100FEF79BF80D2178
:1029B0004BF20200FEF796F84FF4364934214846B0
:1029C000FEF790F834214BF20160FEF78BF83421CA
:1029D0004BF20260FEF786F84FF4314A0D21504663
:1029E000FEF780F84BF2011B0D215846FEF77AF8EE
:1029F0000D214BF20210FEF775F834214FF43740E9
:102A0000FEF770F834214BF20170FEF76BF83421B9
:102A10004BF20270FEF766F800214FF43240FEF7E9
:102A200061F800214BF20120FEF75CF800214BF227
:102A30000220FEF757F824214FF43840FEF752F8F1
:102A400024214BF60100FEF74DF824214BF602003D
:102A5000FEF748F801214FF43F40FEF743F800E04D
:102A6000FEE30F214FF43340FEF73CF80F214BF209
:102A70000130FEF737F80F214BF20230FEF732F843
:102A800034214FF43940FEF72DF834214BF6011074
:102A9000FEF728F834214BF60210FEF723F8082140
:102AA0004FF43540FEF71EF808214BF20150FEF7B7
:102AB00019F808214BF20250FEF714F803214FF4E5
:102AC0004240FEF70FF824214FF43A40FEF70AF88F
:102AD00024214BF60120FEF705F824214BF60220B5
:102AE000FEF700F800214FF43C40FDF7FBFF782192
:102AF0004BF60140FDF7F6FF00214BF60240FDF7D3
:102B0000F1FF00214FF43D40FDF7ECFF78214BF63B
:102B10000150FDF7E7FF00214BF60250FDF7E2FF01
:102B200000214FF43E40FDF7DDFF64214BF60160CC
:102B3000FDF7D8FF00214FF45140FDF7D3FF3321BB
:102B40004DF20110FDF7CEFF00214DF20210FDF70E
:102B5000C9FF34214DF20310FDF7C4FF00214DF2EF
:102B60000410FDF7BFFF3A214DF20510FDF7BAFF43
:102B700000214DF20610FDF7B5FF4A214DF2071076
:102B8000FDF7B0FF00214DF20810FDF7ABFF5C210F
:102B90004DF20910FDF7A6FF00214DF20A10FDF7D6
:102BA000A1FF81214DF20B10FDF79CFF00214DF29A
:102BB0000C10FDF797FFA6214DF20D10FDF792FFC7
:102BC00000214DF20E10FDF78DFFE5214DF20F10A3
:102BD000FDF788FF01214DF21010FDF783FF13214F
:102BE0004DF21110FDF77EFF01214DF21210FDF79D
:102BF00079FF54214DF21310FDF774FF01214DF2BE
:102C00001410FDF76FFF82214DF21510FDF76AFFDA
:102C100001214DF21610FDF765FFCA214DF2171084
:102C2000FDF760FF02214DF21810FDF75BFF002158
:102C30004DF21910FDF756FF02214DF21A10FDF763
:102C400051FF01214DF21B10FDF74CFF02214DF207
:102C50001C10FDF747FF34214DF21D10FDF742FF18
:102C600002214DF21E10FDF73DFF67214DF21F10AE
:102C7000FDF738FF02214DF22010FDF733FF8421CC
:102C80004DF22110FDF72EFF02214DF22210FDF72B
:102C900029FFA4214DF22310FDF724FF02214DF25C
:102CA0002410FDF71FFFB7214DF22510FDF71AFF85
:102CB00002214DF22610FDF715FFCF214DF227100E
:102CC000FDF710FF02214DF22810FDF70BFFDE216A
:102CD0004DF22910FDF706FF02214DF22A10FDF7F3
:102CE00001FFF2214DF22B10FDF7FCFE02214DF207
:102CF0002C10FDF7F7FEFE214DF22D10FDF7F2FE30
:102D000003214DF22E10FDF7EDFE10214DF22F1094
:102D1000FDF7E8FE03214DF23010FDF7E3FE33210D
:102D20004DF23110FDF7DEFE03214DF23210FDF7BA
:102D3000D9FE6D214DF23310FDF7D4FE00214FF482
:102D40005240FDF7CFFE33214DF20120FDF7CAFEC0
:102D500000214DF20220FDF7C5FE34214DF2032083
:102D6000FDF7C0FE00214DF20420FDF7BBFE3A2125
:102D70004DF20520FDF7B6FE00214DF20620FDF7CD
:102D8000B1FE4A214DF20720FDF7ACFE00214DF2C5
:102D90000820FDF7A7FE5C214DF20920FDF7A2FEF9
:102DA00000214DF20A20FDF79DFE81214DF20B20FE
:102DB000FDF798FE00214DF20C20FDF793FEA621B1
:102DC0004DF20D20FDF78EFE00214DF20E20FDF795
:102DD00089FEE5214DF20F20FDF784FE01214DF221
:102DE0001020FDF77FFE13214DF21120FDF77AFE32
:102DF00001214DF21220FDF775FE54214DF21320F2
:102E0000FDF770FE01214DF21420FDF76BFE8221CB
:102E10004DF21520FDF766FE01214DF21620FDF75B
:102E200061FECA214DF21720FDF75CFE02214DF232
:102E30001820FDF757FE00214DF21920FDF752FE34
:102E400002214DF21A20FDF74DFE01214DF21B200B
:102E5000FDF748FE02214DF21C20FDF743FE342110
:102E60004DF21D20FDF73EFE02214DF21E20FDF722
:102E700039FE67214DF21F20FDF734FE02214DF28D
:102E80002020FDF72FFE84214DF22120FDF72AFEA0
:102E900002214DF22220FDF725FEA4214DF2232030
:102EA000FDF720FE02214DF22420FDF71BFEB72185
:102EB0004DF22520FDF716FE02214DF22620FDF7EA
:102EC00011FECF214DF22720FDF70CFE02214DF21D
:102ED0002820FDF707FEDE214DF22920FDF702FE36
:102EE00002214DF22A20FDF7FDFDF2214DF22B20AB
:102EF000FDF7F8FD02214DF22C20FDF7F3FDFE2138
:102F00004DF22D20FDF7EEFD03214DF22E20FDF7B1
:102F1000E9FD10214DF22F20FDF7E4FD03214DF2D4
:102F20003020FDF7DFFD33214DF23120FDF7DAFDD2
:102F300003214DF23220FDF7D5FD6D214DF23320F6
:102F4000FDF7D0FD00214FF45340FDF7CBFD3321B9
:102F50004DF20130FDF7C6FD00214DF20230FDF7C4
:102F6000C1FD34214DF20330FDF7BCFD00214DF2CF
:102F70000430FDF7B7FD3A214DF20530FDF7B2FD03
:102F800000214DF20630FDF7ADFD4A214DF207302C
:102F9000FDF7A8FD00214DF20830FDF7A3FD5C21EF
:102FA0004DF20930FDF79EFD00214DF20A30FDF78C
:102FB00099FD81214DF20B30FDF794FD00214DF27A
:102FC0000C30FDF78FFDA6214DF20D30FDF78AFD87
:102FD00000214DF20E30FDF785FDE5214DF20F3059
:102FE000FDF780FD01214DF21030FDF77BFD13212F
:102FF0004DF21130FDF776FD01214DF21230FDF753
:1030000071FD54214DF21330FDF76CFD01214DF29D
:103010001430FDF767FD82214DF21530FDF762FD9A
:1030200001214DF21630FDF75DFDCA214DF217303A
:10303000FDF758FD02214DF21830FDF753FD002138
:103040004DF21930FDF74EFD02214DF21A30FDF719
:1030500049FD01214DF21B30FDF744FD02214DF2E7
:103060001C30FDF73FFD34214DF21D30FDF73AFDD8
:1030700002214DF21E30FDF735FD67214DF21F3064
:10308000FDF730FD02214DF22030FDF72BFD8421AC
:103090004DF22130FDF726FD02214DF22230FDF7E1
:1030A00021FDA4214DF22330FDF71CFD02214DF23C
:1030B0002430FDF717FDB7214DF22530FDF712FD45
:1030C00002214DF22630FDF70DFDCF214DF22730C4
:1030D000FDF708FD02214DF22830FDF703FDDE214A
:1030E0004DF22930FDF7FEFC02214DF22A30FDF7AA
:1030F000F9FCF2214DF22B30FDF7F4FC02214DF2E8
:103100002C30FDF7EFFCFE214DF22D30FDF7EAFCEF
:1031100003214DF22E30FDF7E5FC10214DF22F304A
:10312000FDF7E0FC03214DF23030FDF7DBFC3321ED
:103130004DF23130FDF7D6FC03214DF23230FDF770
:10314000D1FC6D214DF23330FDF7CCFC00214FF462
:103150005440FDF7C7FC332100E080E34DF201400D
:10316000FDF7C0FC00214DF20240FDF7BBFC34210D
:103170004DF20340FDF7B6FC00214DF20440FDF78F
:10318000B1FC3A214DF20540FDF7ACFC00214DF2B7
:103190000640FDF7A7FC4A214DF20740FDF7A2FCCF
:1031A00000214DF20840FDF79DFC5C214DF20940E5
:1031B000FDF798FC00214DF20A40FDF793FC8121B8
:1031C0004DF20B40FDF78EFC00214DF20C40FDF757
:1031D00089FCA6214DF20D40FDF784FC00214DF243
:1031E0000E40FDF77FFCE5214DF20F40FDF77AFC24
:1031F00001214DF21040FDF775FC13214DF21140F5
:10320000FDF770FC01214DF21240FDF76BFC5421DB
:103210004DF21340FDF766FC01214DF21440FDF71D
:1032200061FC82214DF21540FDF75CFC01214DF25D
:103230001640FDF757FCCA214DF21740FDF752FC2E
:1032400002214DF21840FDF74DFC00214DF21940CE
:10325000FDF748FC02214DF21A40FDF743FC00E067
:1032600000E301214DF21B40FDF73CFC02214DF231
:103270001C40FDF737FC34214DF21D40FDF732FCB8
:1032800002214DF21E40FDF72DFC67214DF21F403B
:10329000FDF728FC02214DF22040FDF723FC84219C
:1032A0004DF22140FDF71EFC02214DF22240FDF7B8
:1032B00019FCA4214DF22340FDF714FC02214DF22C
:1032C0002440FDF70FFCB7214DF22540FDF70AFC25
:1032D00002214DF22640FDF705FCCF214DF227409B
:1032E000FDF700FC02214DF22840FDF7FBFBDE213B
:1032F0004DF22940FDF7F6FB02214DF22A40FDF781
:10330000F1FBF2214DF22B40FDF7ECFB02214DF2D7
:103310002C40FDF7E7FBFE214DF22D40FDF7E2FBCF
:1033200003214DF22E40FDF7DDFB10214DF22F4021
:10333000FDF7D8FB03214DF23040FDF7D3FB3321DD
:103340004DF23140FDF7CEFB03214DF23240FDF747
:10335000C9FB6D214DF23340FDF7C4FB00214FF452
:103360005540FDF7BFFB33214DF20150FDF7BAFB8D
:1033700000214DF20250FDF7B5FB34214DF2035010
:10338000FDF7B0FB00214DF20450FDF7ABFB3A21F5
:103390004DF20550FDF7A6FB00214DF20650FDF75A
:1033A000A1FB4A214DF20750FDF79CFB00214DF295
:1033B0000850FDF797FB5C214DF20950FDF792FB99
:1033C00000214DF20A50FDF78DFB81214DF20B508B
:1033D000FDF788FB00214DF20C50FDF783FBA62181
:1033E0004DF20D50FDF77EFB00214DF20E50FDF722
:1033F00079FBE5214DF20F50FDF774FB01214DF2F1
:103400001050FDF76FFB13214DF21150FDF76AFBD1
:1034100001214DF21250FDF765FB54214DF213507E
:10342000FDF760FB01214DF21450FDF75BFB82219B
:103430004DF21550FDF756FB01214DF21650FDF7E8
:1034400051FBCA214DF21750FDF74CFB02214DF202
:103450001850FDF747FB00214DF21950FDF742FBD4
:1034600002214DF21A50FDF73DFB01214DF21B5098
:10347000FDF738FB02214DF21C50FDF733FB3421E0
:103480004DF21D50FDF72EFB02214DF21E50FDF7AF
:1034900029FB67214DF21F50FDF724FB02214DF25D
:1034A0002050FDF71FFB84214DF22150FDF71AFB40
:1034B00002214DF22250FDF715FBA4214DF22350BD
:1034C000FDF710FB02214DF22450FDF70BFBB72155
:1034D0004DF22550FDF706FB02214DF22650FDF777
:1034E00001FBCF214DF22750FDF7FCFA02214DF2EE
:1034F0002850FDF7F7FADE214DF22950FDF7F2FAD8
:1035000002214DF22A50FDF7EDFAF2214DF22B5037
:10351000FDF7E8FA02214DF22C50FDF7E3FAFE2107
:103520004DF22D50FDF7DEFA03214DF22E50FDF73E
:10353000D9FA10214DF22F50FDF7D4FA03214DF2A4
:103540003050FDF7CFFA33214DF23150FDF7CAFA72
:1035500003214DF23250FDF7C5FA6D214DF2335083
:10356000FDF7C0FA00214FF45640FDF7BBFA3321B6
:103570004DF20160FDF7B6FA00214DF20260FDF751
:10358000B1FA34214DF20360FDF7ACFA00214DF29F
:103590000460FDF7A7FA3A214DF20560FDF7A2FAA3
:1035A00000214DF20660FDF79DFA4A214DF20760B9
:1035B000FDF798FA00214DF20860FDF793FA5C21BF
:1035C0004DF20960FDF78EFA00214DF20A60FDF719
:1035D00089FA81214DF20B60FDF784FA00214DF24A
:1035E0000C60FDF77FFAA6214DF20D60FDF77AFA27
:1035F00000214DF20E60FDF775FAE5214DF20F60E6
:10360000FDF770FA01214DF21060FDF76BFA1321FE
:103610004DF21160FDF766FA01214DF21260FDF7DF
:1036200061FA54214DF21360FDF75CFA01214DF26D
:103630001460FDF757FA82214DF21560FDF752FA3A
:1036400001214DF21660FDF74DFACA214DF21760C7
:10365000FDF748FA02214DF21860FDF743FA002108
:103660004DF21960FDF73EFA02214DF21A60FDF7A6
:1036700039FA01214DF21B60FDF734FA02214DF2B7
:103680001C60FDF72FFA34214DF21D60FDF72AFA78
:1036900002214DF21E60FDF725FA67214DF21F60F1
:1036A000FDF720FA02214DF22060FDF71BFA84217C
:1036B0004DF22160FDF716FA02214DF22260FDF76E
:1036C00011FAA4214DF22360FDF70CFA02214DF20C
:1036D0002460FDF707FAB7214DF22560FDF702FAE5
:1036E00002214DF22660FDF7FDF9CF214DF2276052
:1036F000FDF7F8F902214DF22860FDF7F3F9DE211C
:103700004DF22960FDF7EEF902214DF22A60FDF736
:10371000E9F9F2214DF22B60FDF7E4F902214DF2B7
:103720002C60FDF7DFF9FE214DF22D60FDF7DAF98F
:1037300003214DF22E60FDF7D5F910214DF22F60D7
:10374000FDF7D0F903214DF23060FDF7CBF93321BD
:103750004DF23160FDF7C6F903214DF23260FDF7FD
:10376000C1F96D214DF23360FDF7BCF955212046BA
:10377000FDF7B8F9AA212846FDF7B4F952213046E1
:10378000FDF7B0F908213846FDF7ACF90021604695
:10379000FDF7A8F9CC215046FDF7A4F900215846C1
:1037A000FDF7A0F905214846FDF79CF970214FF47B
:1037B0003740FDF797F970214BF20170FDF792F950
:1037C00001214FF43840FDF78DF903214BF601003C
:1037D000FDF788F903214BF60200FDF783F9032179
:1037E0004BF60300FDF77EF902214FF43C40FDF754
:1037F00079F900214BF60140FDF774F900214BF6F1
:103800000240FDF76FF9D0214FF44940FDF76AF906
:1038100002214CF60110FDF765F950214CF602101B
:10382000FDF760F950214CF60310FDF75BF95021CC
:103830004CF60410FDF756F900214FF45450FDF7F3
:1038400051F955214FF46850FDF74CF94FF4885069
:10385000FDF726F9782002F086F84FF42450FDF7A2
:103860001FF9FDE3A0F513414FF480744FF4E066B7
:1038700040F2022740F23F194FF4274A25392BD056
:10388000F51DA0F5134128397ED0A0F513414FF462
:10389000887A4FF41C5B203977D0A0F51341313979
:1038A00074D0A0F5A841083971D0A0F5A8514FF403
:1038B000407A05396CD0A0F53541053969D0A0F5BD
:1038C0004541053966D0A0F58A4131397ED0A0F551
:1038D0008A4135397BD0C4E747F6F001E520FDF792
:1038E00001F921460120FDF7FDF831460220FDF7E0
:1038F000F9F841F230010320FDF7F4F8002104202B
:10390000FDF7F0F839460820FDF7ECF80021092012
:10391000FDF7E8F800210A20FDF7E4F800210C206B
:10392000FDF7E0F800210D20FDF7DCF800210F2065
:10393000FDF7D8F800211020FDF7D4F80721112059
:10394000FDF7D0F800211220FDF7CCF8002113205C
:10395000FDF7C8F800210720FDF7C4F841F2906197
:103960001020FDF7BFF840F227211120FDF7BAF82B
:103970009D211220FDF7B6F84FF4C8511320FDF732
:10398000B1F82521292006E07CE037E1DAE1AEE25A
:1039900048E3FDE3FDE3FDF7A5F80D212B20FDF73E
:1039A000A1F807213020FDF79DF840F203313120C6
:1039B000FDF798F803213220FDF794F840F2062134
:1039C0003520FDF78FF80821362001E0FEE3FEE305
:1039D000FDF788F840F206413720FDF783F84FF4F1
:1039E00041713820FDF77EF807213920FDF77AF87C
:1039F00040F202613C20FDF775F808213D20FDF7FB
:103A000071F800215020FDF76DF8EF215120FDF7EE
:103A100069F800215220FDF765F849465320FDF76B
:103A200061F851466020FDF75DF801216120FDF746
:103A300059F800216A20FDF755F800218020FDF794
:103A400051F800218120FDF74DF800218220FDF77B
:103A500049F800218320FDF745F800218420FDF777
:103A600041F800218520FDF73DF810219020FDF759
:103A700039F84FF4C0619220FDF734F840F2331169
:103A80000720FDE341F28F01EC20FDF72BF841F216
:103A90003421EF20FDF726F821460120FDF722F81A
:103AA00031460220FDF71EF841F230010320FDF7F8
:103AB00019F800210420FDF715F839460820FDF714
:103AC00011F800210920FDF70DF800210A20FDF76B
:103AD00009F801210C20FDF705F800210D20FDF764
:103AE00001F800210F20FCF7FDFF00211020FCF75A
:103AF000F9FF07211120FCF7F5FF00211220FCF748
:103B0000F1FF00211320FCF7EDFF01210720FCF756
:103B1000E9FF322001F055FF41F290411020FCF7FF
:103B2000E1FF40F227211120FCF7DCFF322001F0F9
:103B300048FF8A211220FCF7D5FF322001F041FF17
:103B40004FF4D0511320FCF7CDFF06212920FCF7BC
:103B5000C9FF0D212B20FCF7C5FF322001F031FFFA
:103B600000212020FCF7BEFF00212120FCF7BAFF36
:103B7000322001F026FF00213020FCF7B3FF40F295
:103B800004613120FCF7AEFF40F205313220FCF732
:103B9000A9FF00213520FCF7A5FF40F6094136209A
:103BA000FCF7A0FF4FF401713720FCF79BFF40F2B8
:103BB00001313820FCF796FF29463920FCF792FFA7
:103BC00000213C20FCF78EFF40F60A213D20FCF747
:103BD00089FF322001F0F5FE00215020FCF782FF22
:103BE000EF215120FCF77EFF00215220FCF77AFFE5
:103BF00049465320FCF776FF51464DE10021084627
:103C0000FCF770FF21460120FCF76CFF31460220D3
:103C1000FCF768FF41F230010320FCF763FF00214D
:103C20000420FCF75FFF39460820FCF75BFF00210A
:103C30000920FCF757FF00210A20FCF753FF012160
:103C40000C20FCF74FFF00210D20FCF74BFF00215B
:103C50000F20FCF747FF322001F0B3FE40F20111C4
:103C60000720FCF73FFF322001F0ABFE4FF48651F6
:103C70001020FCF737FF07211120FCF733FF5446D3
:103C800051461220FCF72EFF4FF430611320FCF751
:103C900029FF00212920FCF725FF44F210012B20E9
:103CA000FCF720FF00215020FCF71CFFEF215120E2
:103CB000FCF718FF00215220FCF714FF494653205F
:103CC000FCF710FF59466020FCF70CFF0121612032
:103CD000FCF708FF00216A20FCF704FF0021802088
:103CE000FCF700FF00218120FCF7FCFE0021822070
:103CF000FCF7F8FE00218320FCF7F4FE002184206D
:103D0000FCF7F0FE00218520FCF7ECFE102190204E
:103D1000FCF7E8FE00219220FCF7E4FE012193204D
:103D2000FCF7E0FE21469520FCF7DCFE0021972001
:103D3000FCF7D8FE00219820FCF7D4FE40F2731166
:103D400007207BE341F21401E720FCF7CBFE21467C
:103D50000120FCF7C7FE4FF400710220FCF7C2FE01
:103D600041F238010320FCF7BDFE39460820FCF77C
:103D7000B9FE00210920FCF7B5FE00210A20FCF75E
:103D8000B1FE00210C20FCF7ADFE00210D20FCF758
:103D9000A9FE00210F20FCF7A5FE00211020FCF752
:103DA000A1FE07211120FCF79DFE00211220FCF747
:103DB00099FE00211320FCF795FEC82001F001FEBA
:103DC00041F290611020FCF78DFE40F22721112076
:103DD000FCF788FE322001F0F4FD0C211220FCF7E4
:103DE00081FE322001F0EDFD4FF400611320FCF75D
:103DF00079FE11212920FCF775FE0B212B20FCF701
:103E000071FE322001F0DDFD00212020FCF76AFE6A
:103E10004E4649462120FCF765FE00213020FCF784
:103E200061FE4FF4837421463120FCF75BFE0021D4
:103E30003220FCF757FE4FF401713520FCF752FE9B
:103E400041F20A613620FCF74DFE29463720FCF787
:103E500049FE21463820FCF745FE29463920FCF76B
:103E600041FE40F202413C20FCF73CFE40F60F418F
:103E70003D20FCF737FE00215020FCF733FEEF21F8
:103E80005120FCF72FFE00215220FCF72BFE31467B
:103E90005320FCF727FE59466020FCF723FE012142
:103EA0006120FCF71FFE00216A20FCF71BFE0021A9
:103EB0008020FCF717FE00218120FCF713FE002173
:103EC0008220FCF70FFE00218320FCF70BFE00216F
:103ED0008420FCF707FE00218520FCF703FE10215B
:103EE0009020FCF7FFFD4FF4C0619220FDE32146D6
:103EF0000120FCF7F7FD31460220FCF7F3FD41F20B
:103F000030010320FCF7EEFD00210420FCF7EAFD60
:103F100040F207210820FCF7E5FD00210920FCF70D
:103F2000E1FD00210A20FCF7DDFD00210C20FCF75B
:103F3000D9FD00210D20FCF7D5FD00210F20FCF755
:103F4000D1FD142001F03DFD41F2B0611020FCF7DD
:103F5000C9FD01211120FCF7C5FD01211720FCF747
:103F6000C1FD4FF49C711220FCF7BCFD4FF40061C1
:103F70001320FCF7B7FD09212920FCF7B3FD092127
:103F80002A20FCF7AFFD0021A420FCF7ABFD0021A7
:103F90005020FCF7A7FDEF215120FCF7A3FD0021E5
:103FA0005220FCF79FFD49465320FCF79BFD5946E4
:103FB0006020FCF797FD01216120FCF793FD0021B3
:103FC0006A20FCF78FFD00218020FCF78BFD00218B
:103FD0008120FCF787FD00218220FCF783FD002172
:103FE0008320FCF77FFD00218420FCF77BFD00216E
:103FF0008520FCF777FD13219020FCF773FD00214D
:104000009220FCF76FFD03219320FCF76BFD5146D6
:104010009520FCF767FD40F273110720FCF762FD65
:1040200032200DE100210720FCF75CFD322001F079
:10403000C8FC4FF48E711220FCF754FD0121A4201E
:10404000FCF750FD0F210820FCF74CFD08210A2049
:10405000FCF748FD08210D20FCF744FD294600E04F
:104060006AE33020FCF73EFD07213120FCF73AFDE2
:1040700040F203613220FCF735FD31463320FCF776
:1040800031FD39463420FCF72DFD02213520FCF7A7
:1040900029FD41F60F713620FCF724FD2946372013
:1040A000FCF720FD00213820FCF71CFD0021392001
:1040B000FCF718FD29463A20FCF714FD00213B20AF
:1040C000FCF710FD07213C20FCF70CFD00213D20F2
:1040D000FCF708FD322001F074FC01210720FCF7F9
:1040E00001FD01211720FCF7FDFC322001F069FCE5
:1040F0004FF4BD511020FCF7F5FC40F217211120C0
:10410000FCF7F0FC4FF48F711220FCF7EBFC4FF43E
:1041100070611320FCF7E6FC00212A20FCF7E2FC8A
:104120000A212920FCF7DEFC4FF49F711220FCF7D6
:10413000D9FC00215020FCF7D5FCEF215120FCF7E1
:10414000D1FC00215220FCF7CDFC49465320FCF75E
:10415000C9FC59466020FCF7C5FC01216120FCF731
:10416000C1FC00216A20FCF7BDFC00218020FCF787
:10417000B9FC00218120FCF7B5FC00218220FCF76E
:10418000B1FC00218320FCF7ADFC0021842001E07C
:1041900059E054E1FCF7A6FC00218520FCF7A2FCC5
:1041A00013219020FCF79EFC51469220FCF79AFCCC
:1041B00005219320FCF796FC00219520FCF792FC4A
:1041C00000219720FCF78EFC002101E0FFE1C0E216
:1041D0009820FCF787FC21460120FCF783FC314640
:1041E0000220FCF77FFC41F238010320FCF77AFC47
:1041F00000210420FCF776FC00210C20FCF772FC67
:1042000000210F20FCF76EFC00212020FCF76AFC47
:1042100000212120FCF766FC21210720FCF762FC2D
:10422000142001F0CEFB61210720FCF75BFC142079
:1042300001F0C7FB40F273110720FCF753FC142078
:1042400001F0BFFB78E200210846FCF74BFC00219F
:104250000846FCF747FC00210846FCF743FC002118
:104260000846FCF73FFC0121A420FCF73BFC14208E
:1042700001F0A7FB5D4659466020FCF733FC00E0E7
:10428000D8E039460820FCF72DFC4FF405713020AA
:10429000FCF728FC43F215713120FCF723FC40F2B7
:1042A00004613220FCF71EFC40F616613320FCF757
:1042B00019FC42F211213420FCF714FC4FF4A851F0
:1042C0003520FCF70FFC48F207513620FCF70AFCBA
:1042D00041F207413720FCF705FC41F20341382049
:1042E000FCF700FC20213920FCF7FCFB1A21902070
:1042F000FCF7F8FB00211020FCF7F4FB072111204C
:10430000FCF7F0FB00211220FCF7ECFB002113204E
:10431000FCF7E8FB142001F054FB4FF4E661102099
:10432000FCF7E0FB40F237111120FCF7DBFB142017
:1043300001F047FB4FF4DC711220FCF7D3FB142093
:1043400001F03FFB4FF470611320FCF7CBFB8021A1
:104350002A20FCF7C7FB48212920FCF7C3FB1420C7
:1043600001F02FFB21460120FCF7BCFB3146022067
:10437000FCF7B8FB41F238010320FCF7B3FB3946E8
:104380000820FCF7AFFB00210A20FCF7ABFB002163
:104390000C20FCF7A7FB00210D20FCF7A3FB30212C
:1043A0000E20FCF79FFB00215020FCF79BFBEF2128
:1043B0005120FCF797FB00215220FCF793FB494664
:1043C0005320FCF78FFB29466020FCF78BFB012173
:1043D0006120FCF787FB00216A20FCF783FB112199
:1043E0009020FCF77FFB4FF4C0619220FCF77AFB32
:1043F00040F202419320FCF775FB02219420FCF768
:1044000071FB142001F0DDFA01210720FCF76AFBA3
:10441000142001F0D6FA61210720FCF763FB40F27B
:1044200073110720FCF75EFB00212020FCF75AFBEC
:1044300000212120FCF756FB222100207AE10021F7
:104440000846FCF74FFB00210846FCF74BFB142005
:1044500001F0B7FA00210846FCF744FB00210846AA
:10446000FCF740FB00210846FCF73CFB0021084616
:10447000FCF738FB0121A420FCF734FB142001F0E9
:10448000A0FA59466020FCF72DFB40F606010820F3
:10449000FCF728FB40F2037631463020FCF722FB84
:1044A00001213120FCF71EFB04213220FCF71AFB0E
:1044B0004FF481713320FCF715FB554651463420EB
:1044C000FCF710FB40F203113520FCF70BFB1F211A
:1044D0003620FCF707FB31463720FCF703FB0121B0
:1044E0003820FCF7FFFA04213920FCF7FBFA1521EC
:1044F0009020FCF7F7FA4FF482611020FCF7F2FAF3
:1045000040F247211120FCF7EDFA4FF4DE71122042
:10451000FCF7E8FA4FF460611320FCF7E3FA782027
:1045200001F04FFA21460120FCF7DCFA4FF400714C
:104530000220FCF7D7FA41F230010320FCF7D2FA4F
:1045400008210A20FCF7CEFA00210C20FCF7CAFA59
:1045500020210E20FCF7C6FA00210F20FCF7C2FA3A
:1045600000212020FCF7BEFA00212120FCF7BAFA36
:104570003D212A20FCF7B6FA142001F022FA2D2161
:104580002920FCF7AFFA00215020FCF7ABFA4DF2DE
:10459000EF015120FCF7A6FA00215220FCF7A2FA05
:1045A00049465320FCF79EFA00216120FCF79AFA55
:1045B00000216A20FCF796FA29469220FCF792FA2D
:1045C00005219320FCF78EFA2146FFF7B9BB0121A4
:1045D0000020FCF787FA0A2001F0F3F941F2286184
:1045E0001020FCF77FFA0E211220FCF77BFA40F630
:1045F00039211320FCF776FA0A2001F0E2F9402174
:104600001120FCF76FFA50211520FCF76BFA0A20F5
:1046100001F0D7F91E211220FCF764FA0A2001F0FC
:10462000D0F94FF4B1511020FCF75CFA42F6392171
:104630001320FCF757FA0A2001F0C3F921460120A4
:10464000FCF750FA51460220FCF74CFA41F23801CF
:104650000320FCF747FA39460820FCF743FA082103
:104660000A20FCF73FFA00213020FCF73BFA40F229
:1046700002413120FCF736FA4FF483713220FCF707
:1046800031FA40F203513320FCF72CFA4FF48271D7
:104690003420FCF727FA40F201313520FCF722FAEA
:1046A00029463620FCF71EFA40F205313720FCF788
:1046B00019FA4FF402713820FCF714FA40F60B7126
:1046C0003920FCF70FFA02214120FCF70BFA59467A
:1046D0006020FCF707FA01216120FCF703FA4FF490
:1046E00004719020FCF7FEF900E0D4E04FF48571EE
:1046F0009220FCF7F7F904219320FCF7F3F9214607
:10470000A020FCF7EFF901210720FCF7EBF92121AC
:104710000720FCF7E7F923210720FCF7E3F9332111
:104720000720FCF7DFF940F233110720FCF7DAF934
:104730000021A020FCF7D6F90020FCF7AEFCFA49D6
:104740000120C1F8BC024046FCF7D1FD21B0BDE814
:10475000F08F30211520FCF7C5F910219A20FCF7C5
:10476000C1F920211120FCF7BDF943F228411020A6
:10477000FCF7B8F902211220FCF7B4F941F2380134
:104780001320FCF7AFF9282001F01BF9122108468D
:10479000FCF7A8F9282001F014F943F22041102079
:1047A000FCF7A0F943F238011320FCF79BF94620EF
:1047B00001F007F900213020FCF794F940F20241A2
:1047C0003120FCF78FF940F207313220FCF78AF9EB
:1047D0004FF441713320FCF785F904213420FCF7B4
:1047E00081F940F201413520FCF77CF92946362059
:1047F000FCF778F940F205313720FCF773F94FF4F4
:10480000C26529463820FCF76DF929463920FCF7A6
:1048100069F921460120FCF765F951460220FCF7B1
:1048200061F941F230010320FCF75CF940F6080120
:104830000820FCF757F908210A20FCF753F95946DC
:104840006020FCF74FF901216120FCF74BF94FF490
:104850009F719020FCF746F921469220FCF742F91F
:1048600021469320FCF73EF94FF44051A020FCF77D
:1048700039F91021A320FCF735F901210720FCF7B5
:1048800031F921210720FCF72DF923210720FCF71E
:1048900029F933210720FCF725F940F2331194E67A
:1048A0002DE9F843A14C1E468046A388089FA3F536
:1048B000D040043802D1A079012807D0A2EB08002B
:1048C000401C84B20D464FF0D84929E0258808469F
:1048D000A91AA5EB08030025A57132462A25658192
:1048E0002B26491E5B1EA68189B29BB20097FFF75B
:1048F000D7FF0120A0716681A581BDE8F883294614
:104900004046FCF71EF9FCF703F90020494603E096
:10491000401CA1F8807080B2A042F9D36D1CADB2EA
:10492000B542ECD9E9E72DE9F0478246A2EB0A004F
:10493000401C0E4685B2981B401C87B200244FF0E5
:10494000D849DDF8208015E0301981B25046FCF7D7
:10495000F8F8FCF7DDF80020494607E004FB050302
:10496000401C38F81320A1F8802080B2A842F5D36B
:10497000641CA4B2BC42E7D3BDE8F0872DE9FE4F2A
:10498000161ACDE900104FF000085D1A47464FF0A7
:10499000FF30002E02DD4FF0010102E003D14FF0A5
:1049A00000018B4602E08346C6F10006002D02DDC1
:1049B0004FF0010002E003D14FF00000824602E018
:1049C0008246C5F10005AE4201DD344600E02C46CA
:1049D000601C4FF00009029018E0009881B2019825
:1049E00080B2FCF7E3FAB0442F44A04504DD0198FF
:1049F000A8EB040858440190A74203DD00983F1B30
:104A00005044009009F101001FFA80F9029989458C
:104A1000E3DDBDE8FE8FF0B51C4615460E460746A1
:104A20000B46FFF7ABFF3A46234631461046FFF7E9
:104A3000A5FF23462A4619463846FFF79FFF2A4618
:104A400023463146BDE8F040104697E72DE9FC4F7C
:104A500080460025144603200F46A0EB440649E09B
:104A6000381B81B208EB050A01901FFA8AF0FCF7A7
:104A70009DFA781B81B208EB040900901FFA89F0B7
:104A8000FCF794FA07EB050B1FFA8BF11FFA89F07C
:104A9000FCF78CFA07EB04091FFA89F11FFA8AF078
:104AA000FCF784FAA8EB050A1FFA89F11FFA8AF0CD
:104AB000FCF77CFAA8EB04091FFA8BF11FFA89F0C6
:104AC000FCF774FA019881B21FFA8AF0FCF76EFACB
:104AD000009881B21FFA89F0FCF768FA6D1C002E6D
:104AE00003DA06EB8506B61D04E0281B06EB8006FC
:104AF000641E0A36A542B3DDBDE8FC8F2DE9FF4FE9
:104B00001D460C468A46580700D0012000EBD50010
:104B1000690810FB01F0203A00F0FF09D0B200262E
:104B2000DFF808B0029048E0008040422CD7012016
:104B30000C2D11D0102D14D0182D40D1029877498A
:104B400000EBC00001EB80004FF00008875D3806E5
:104B50000CD5734802880DE00298724900EB4000C2
:104B6000F0E77149029801EB0010EDE70D9828B9C4
:104B70006B48428821460098FCF724FA7806070E15
:104B8000641CBBF80200A4B2A04218D9A4EB0A002E
:104B9000A84209D100985446401C80B20090BBF84E
:104BA000001081420BD906E008F1010000F0FF0877
:104BB000B8F1080FCBD3761CF6B24E45B8D3BDE89A
:104BC000FF8F0246012000E05043491EC9B2FBD2CC
:104BD00070472DE9FF4F81B00026DDF838A01D4653
:104BE000934681463446B0464FEA5A0727E0281BD1
:104BF000401EC1B20A20FFF7E4FFBBFBF0F00A2120
:104C0000B0FBF1F201FB120026B9691E8C4201DAF9
:104C100048B101263030C2B207FB049080B253463F
:104C2000CDF8008006E007FB049080B253462022B6
:104C3000CDF800800299FFF761FF641CE4B2AC423A
:104C4000D5D305B083E52DE9FF4F81B04FF00008C3
:104C5000DDE90EBA1E46814644460AF001054FEAD8
:104C60005B072CE0301B401EC1B20A20FFF7A9FFF2
:104C70000399B1FBF0F00A21B0FBF1F201FB120045
:104C8000B8F1000F05D1711E8C4202DA48B14FF025
:104C900001083030C2B207FB049080B25B46009539
:104CA00008E05FEA0A6007FB049080B25B4600956B
:104CB00008D530220299FFF721FF641CE4B2B44208
:104CC000D0D3BEE72022F5E72DE9F84F044600F0E7
:104CD000FF0910190D46DDE90AB61FFA80F85819C8
:104CE00087B24FF0000A12E0444503D305EB0B00F6
:104CF0004C4685B2BD420FD25B4629462046CDF8D0
:104D000000A0FFF7FBFE04EB5B0084B2761C327858
:104D1000A2F120005E28E7D9BDE8F88F0C1A02083E
:104D200018000020A80F02081C14020810B501206A
:104D300000F0EBFF01280FD1FBF79FFA012000F0F4
:104D4000ECFF9948D0F8A41239B10021C0F8A412A0
:104D500096490878401C087010BD0121F6E72DE93E
:104D6000F0410E468046012190B01C46154688054C
:104D700001F011FE8E4F384601F014FB384601F069
:104D800016FC0028FAD14FF0007000908948CDE958
:104D900001080020CDE903064FF48051CDE906411A
:104DA0000911CDE90851059049020A9104210B919E
:104DB0000321CDE90C100E906946384601F07AFBCC
:104DC00010B0BDE8F0812DE9FE4F0121172001F060
:104DD000E2FD0121084601F0E8FD02258DF80450AE
:104DE000002450208DF806400326DFF8CCB1009057
:104DF0008DF8056001278DF807706946584600F068
:104E0000FDFFC020DFF8B48100906946404600F005
:104E1000F5FF4FF43C60DFF8A891009069464846E2
:104E200000F0ECFF6020DFF89CA10090694650463E
:104E300000F0E4FF0D220421584601F068F80D222D
:104E40000621584601F063F80D220721404601F083
:104E50005EF80D220621484601F059F80D2207217F
:104E6000484601F054F80D220821484601F04FF859
:104E70000D220921484601F04AF80D220B2148462F
:104E800001F045F80D220621404601F040F80D22C0
:104E90000521504601F03BF80D220621504601F055
:104EA00036F800F0A5FE4848202104804481848122
:104EB000048181804480C48000F0A5FE0121084661
:104EC00000F005FF012000F0E9FE4E208DF80800FB
:104ED0008DF809508DF80A608DF80B7002A800F06B
:104EE00034FEBDE8FE8F10B500210846FBF729FE11
:104EF000FBF70EFE01212E4801F015FBBDE8104026
:104F0000012000F0D6BE10B5002000F0D2FE2948E6
:104F100028380168C907FCD1BDE81040244801F0D9
:104F200002BB2DE9F0411E4617460C460546FFF729
:104F3000EAFF4FF6FF70FCF7DAF933463A462146AE
:104F40002846FCF72AF93146384600F0DFFA0021FE
:104F50000846FBF7F6FDFBF7DBFD0121144801F0E5
:104F6000E2FABDE8F041012000F0A3BE70B514469E
:104F70000D46064600F03CFE134B0020A9011880A8
:104F8000588198811981710199805880E001D880F9
:104F9000184600F038FE012000F08BFEBDE870409E
:104FA000012000F07BBE0000008042421C00002077
:104FB000286402402800055000000240000402401E
:104FC00000080240001002403AD701201CB5012120
:104FD000032001F0E0FC4FF44070009000208DF8B9
:104FE000040003208DF8050001248DF80740694670
:104FF0004A4800F003FF02208DF80700009469463C
:10500000474800F0FBFE1CBD2DE9F05F454CA61D96
:105010002088002538B13088401C80B23080642858
:1050200001D935802580608838B17088401C80B2F5
:105030007080642801D975806580A08838B1B088F7
:10504000401C80B2B080642801D9B580A580DFF80B
:10505000CC804FF40071404600F036FF314FDFF84E
:10506000C0B04FF001094FF4807ABF1E10B3514613
:10507000404600F029FFE8B10121584600F024FF26
:10508000012817D04FF400714446404600F01CFF41
:1050900001280DD15146204600F016FF012807D106
:1050A0000121584600F010FF002801D187F8019037
:1050B000BDE8F09F7D700121584600F005FF0128F2
:1050C00016D04FF40071404600F0FEFED8B15146B4
:1050D000404600F0F9FE0028EAD1A088401C80B2CA
:1050E000A0800528E4D3B580A58003203870DFE7D1
:1050F0002088401C80B220800528D9D335802580A7
:1051000087F80090D4E76088401C80B26080052852
:10511000CED3758065800220E8E7000000040240DD
:1051200000000240200000202DE9FC410024012164
:10513000602001F030FC01258DF8045000264FF46A
:1051400002408DF80660022700908DF805708DF8FA
:1051500007506946FE4800F051FE8DF804502802C1
:105160008DF8066000908DF805708DF8075069463F
:10517000F84800F043FEF848C0F8A062C0F8A0521A
:10518000C0F8A062C0F8A052F44FC7F8A4620A2089
:1051900007F5297700F015FCBE610A2000F011FC2C
:1051A000BD6100F055FA0121FF2000F023FB8021B2
:1051B000122000F01FFB322000F003FC1C2000F046
:1051C00038FB4FF6FF7505EA00261D2000F031FB85
:1051D0003043A0F5FE41A23902D00120BDE8FC8198
:1051E0000A2000F026FB05EA00250B2000F021FB39
:1051F0002843A0F51851423905D042F24161884256
:1052000001D00220EAE7D64D05EB4400417815F8BD
:10521000140000F0EFFA0A2C02D2052000F0D1FBB6
:10522000641CA4B2B42CEFD30020D7E770B5CD4DE9
:10523000002400BF05EB4400417815F8140000F08D
:10524000D9FA641CA4B2082CF4D3C64D00242A3D1C
:1052500005EB4400417815F8140000F0CBFA641C0B
:10526000A4B2072CF4D370BD70B5BE4D00241C3D14
:1052700005EB4400417815F8140000F0BBFA641CFB
:10528000A4B20E2CF4D370BD70B5B649103101EB49
:10529000C005002405EB4400417815F8140000F027
:1052A000A9FA641CE4B2042CF4D370BD70B55E2579
:1052B0004126542430B102280BD003280CD00428F6
:1052C00010D10CE00021FF2000F094FA0021C7204B
:1052D0001AE065254F2405E05225662402E04225A8
:1052E0003F2671240021FF2000F084FA4021C720CE
:1052F00000F080FA2946CC2000F07CFA3146CD201F
:1053000000F078FA2146CE20BDE8704000F072BA75
:10531000000110B52030C0B240F008040021FF2089
:1053200000F068FA00217C2000F064FA02217D2060
:1053300000F060FA03217C2000F05CFA21467D2019
:1053400000F058FA2146BDE810407D2000F052BA26
:1053500010B504460021FF2000F04CFA00217C200B
:1053600000F048FA04217D2000F044FA09217C2055
:1053700000F040FA2007010E7D2000F03BFA0021EA
:10538000BDE810407D2000F035BA70B520252C46D0
:1053900030B1012807D0032808D004280BD108E039
:1053A0001825342407E01C252A2404E0242516248B
:1053B00001E028250C240021FF2000F01BFA002129
:1053C0007C2000F017FA04217D2000F013FA072159
:1053D0007C2000F00FFA20217D2000F00BFA2946F6
:1053E0007D2000F007FA21467D2000F003FABDE899
:1053F000704006217D2000F0FDB970B580260024A4
:105400003546072817D2DFE800F0160406080C0F0F
:10541000130040240FE018240DE018244026C02576
:1054200009E01824402601E01824A026402502E0C7
:1054300018244026A6250021FF2000F0DBF90021DA
:105440007C2000F0D7F921467D2000F0D3F905211A
:105450007C2000F0CFF931467D2000F0CBF92946C1
:10546000BDE870407D2000F0C5B910B504460121AB
:10547000FF2000F0BFF9122000F0DBF920F002015C
:105480000CB141F00201BDE81040122000F0B2B9A9
:105490002DE9F0410D46044600EB520701EB53069F
:1054A0000121FF2000F0A6F9032000F0C2F906F068
:1054B0000302294600F0F00062F39F01014303203C
:1054C00000F098F9C5F38701192000F093F9C6F3AD
:1054D00087011A2000F08EF9322000F0AAF907F0B7
:1054E0000702214600F0C00062F3DF0101433220D1
:1054F00000F080F9C4F3C701172000F07BF9C7F36F
:10550000C701BDE8F041182000F074B970B58207FA
:1055100001D0012070BD8A0701D0022070BD84082F
:105520008D080021FF2000F065F90421E02000F043
:1055300061F9E1B25A2000F05DF9E9B25B2000F0B8
:1055400059F90421C4F3012001EA951101430BE04C
:105550000018024000140240008042420000434212
:1055600068270208FA2802085C2000F043F90021AD
:10557000E02000F03FF9002070BD2DE9F041074622
:105580000E46900702D00120BDE8F081980701D0B7
:105590000220F9E794089D080021FF2000F02AF975
:1055A0000421E02000F026F9E1B2512000F022F9B8
:1055B000E9B2522000F01EF9F9B2532000F01AF9B6
:1055C000F1B2542000F016F92846802505EA500172
:1055D000702000EA16100843082101EA5411014323
:1055E000C7F302200143552000F004F905EA9401B5
:1055F000572000F0FFF80021E02000F0FBF8002029
:10560000C2E770B50D4604460021FF2000F0F2F815
:105610000421E02000F0EEF8C4F3C701C02000F040
:10562000E9F8C5F3C701C12000F0E4F86007810E76
:1056300005F007000843802101EA141101438C2082
:1056400000F0D8F80021E02000F0D4F8002070BD70
:105650001CB50121082001F09EF9C0200090012016
:105660008DF8040000218DF8061002218DF8051038
:10567000834C8DF807006946204600F0BFFBC0212F
:10568000204600F035FC206820F44040206020686F
:1056900040F4804020601CBD70B57A4C0120C4F8F5
:1056A0009C02C4F89802322004F5267400F05BF9DD
:1056B00000256560322000F056F9256070BD70B598
:1056C000704C0020C4F89C02322004F5267400F0CF
:1056D0004AF901252560322000F045F96560BDE8F2
:1056E0007040322000F03FB970B5322000F03BF935
:1056F000644C0120C4F89C02C4F89802322004F5DE
:10570000267400F030F900252560322000F02BF9D6
:105710006560BDE87040322000F025B92DE9F04108
:105720000025584C0746A8460126380602D5C4F87D
:105730009C6201E0C4F89C827806070E322000F0DB
:1057400012F9C4F89862322000F00DF9C4F898827A
:105750006D1CEDB2082DE8D3494D286820F4404077
:10576000286028682860322000F0FDF8C4F89862AC
:10577000322000F0F8F8D4F81C0200B10120C4F87F
:105780009882296821F440412960296841F48041C8
:105790002960BDE8F0812DE9F047394C00252068EB
:1057A00020F44040206020682060364F08264FF0EB
:1057B0000108A946322000F0D6F8C7F8988268069A
:1057C000050ED7F81C0208B16D1CEDB2322000F0B6
:1057D000CAF8C7F89892761E16F0FF06EAD120683C
:1057E00020F440402060206840F48040206028463B
:1057F000BDE8F08770B50D4606460024FFF74CFF64
:105800006020FFF78BFF00B10124642000F0ABF8AB
:105810003046FFF783FF00B10124642000F0A3F8B5
:105820002846FFF77BFF00B10124FFF748FF204621
:1058300070BD10B50446FFF72FFF6020FFF76EFF25
:10584000642000F090F82046FFF768FF642000F025
:105850008AF8FFF734FF642000F085F8FFF71CFF9B
:105860006120FFF75BFF642000F07DF8FFF793FFF6
:105870000446FFF739FFFFF722FF204610BD000066
:10588000000C0240008041427FB50D4604460121D4
:10589000022001F09EF800200194ADF80050244C45
:1058A000ADF80200ADF808006946204601F084FB1F
:1058B00001221146204601F008FF0121204601F097
:1058C000F3FB1D208DF80C0001208DF80D00032145
:1058D0008DF80E108DF80F0003A800F036F97FBD8B
:1058E00010B5134C0121204601F003FF012817D108
:1058F00010490878401CC2B20A70642A0ED30020F6
:1059000008700D48D0F8A81281B10021C0F8A81283
:105910000A480178012901D001210170FFF774FBC9
:105920002046BDE81040012101F0EFBE0121EDE766
:10593000000400402C0000200080424202000020B1
:1059400010B504466FF0040000F040F92948E10862
:1059500001EB41020170C2EBC1114FF6FF7202EA86
:10596000C101418010BD2349097848434FF0E0212F
:10597000486100228A61086940F0010008610869F5
:10598000C30701D0C003FAD5086920F001000861FF
:105990008A6170471749498848434FF0E0214861C0
:1059A00000228A61086940F0010008610869C307A4
:1059B00001D0C003FAD5086920F0010008618A61AE
:1059C000704770B54FF40775B0FBF5F1CCB2B0FB82
:1059D000F5F105FB110604E02846FFF7DBFF641E26
:1059E000E4B2002CF8D1002E03D03046BDE8704060
:1059F000D0E770BD2E000020704744490A88520647
:105A0000FCD5C2B28A807047F0B50646012187B046
:105A1000084600F0C0FF0121102000F0E4FF3C4FD9
:105A200007220921384600F072FA07220A21384677
:105A300000F06DFA4FF4C060049002208DF814005D
:105A40008DF8150000248DF8164001258DF81750AB
:105A500004A9384600F0D2F9ADF80440ADF806408C
:105A6000ADF80840ADF80C400C20284CADF80A0009
:105A700000966946204601F0AAF80121204601F06F
:105A800017F94021204601F0D1F9012240F22551B9
:105A9000204601F0ACF925208DF8180003208DF880
:105AA00019008DF81A008DF81B5006A800F04DF86B
:105AB00007B0F0BD70B5154C40F22551204601F0FD
:105AC000B8F900280ED0204601F01CF9C2B21148E6
:105AD00001880B0406D44C044FF0000306D50A2AB3
