:020000040800F2
:1000000088F90120215C0008D1090008D309000803
:10001000D5090008D7090008D90900080000000028
:10002000000000000000000000000000DB090008E4
:10003000DD09000800000000DF090008E1090008F0
:100040003B5C00083B5C00083B5C00083B5C000834
:100050003B5C00083B5C00083B5C00083B5C000824
:100060003B5C00083B5C00083B5C00083B5C000814
:100070003B5C00083B5C00083B5C00083B5C000804
:100080003B5C00083B5C00083B5C00083B5C0008F4
:100090003B5C00083B5C00083B5C00083B5C0008E4
:1000A0003B5C00083B5C00083B5C00083B5C0008D4
:1000B0003B5C0008E5590008857F00083B5C0008B0
:1000C0003B5C00083B5C00083B5C00083B5C0008B4
:1000D0003B5C0008B95B00083B5C00083B5C000827
:1000E0003B5C00083B5C00083B5C00083B5C000894
:1000F0003B5C00083B5C00083B5C00083B5C000884
:100100003B5C00083B5C00083B5C00083B5C000873
:100110003B5C00083B5C00083B5C00083B5C000863
:100120003B5C00083B5C00083B5C00083B5C000853
:100130003B5C00083B5C00083B5C00083B5C000843
:100140003B5C00083B5C00083B5C00083B5C000833
:100150003B5C00083B5C00083B5C00083B5C000823
:100160003B5C00083B5C00083B5C00083B5C000813
:100170003B5C00083B5C0008F54E00083B5C000857
:100180003B5C00083B5C000800F002F800F06DF8F2
:100190000AA090E8000C82448344AAF10107DA45E2
:1001A00001D100F062F8AFF2090EBAE80F0013F0C7
:1001B000010F18BFFB1A43F0010318474CA90000B8
:1001C0006CA900000A444FF0000C10F8013B13F03A
:1001D000070408BF10F8014B1D1108BF10F8015BA0
:1001E000641E05D010F8016B641E01F8016BF9D193
:1001F00013F0080F1EBF10F8014BAD1C0C1B09D1EA
:100200006D1E58BF01F801CBFAD505E014F8016B5B
:1002100001F8016B6D1EF9D59142D6D370470000ED
:100220000023002400250026103A28BF78C1FBD8FF
:10023000520728BF30C148BF0B607047642908F0DF
:100240007583752908F07283782908F0AB836329D8
:1002500008F01D85732908F02285002070471FB51E
:1002600008F071FD1FBD10B510BD08F033FD11463B
:10027000FFF7F5FF00F0CFFA08F051FD03B4FFF7E8
:10028000F2FF03BC05F03AFC70B5FE4C2078002864
:1002900024D06078FC4D80B90021284606F0BDF9D5
:1002A000284606F0FEF90028FAD1284606F0D5F9CE
:1002B000C0F5F840606001206070607802280DD1C0
:1002C000F1484FF4F841001D0160284606F0C3F9DB
:1002D0000121284606F0A1F90020607070BD0227B8
:1002E00086B04FF000083E4603244FF6FF7001F041
:1002F00071F8E6494FF478404FF0100B0880E4A005
:10030000CDE900B05D465B46C82232211E2004F0D4
:1003100015FDE2A0CDE900501023C82246211E2081
:1003200004F00CFDE2A0CDE900501023C8226421A6
:100330001E2004F003FDE2A0CDE900501023C822E6
:1003400078211E2004F0FAFCE1A0CDE90050102332
:10035000C8228C211E2004F0F1FCE1A0CDE9005060
:100360001023C822A0211E2004F0E8FCC548DFA10C
:100370002430C26802A808F075FA02A8CDE900503E
:100380001023C822B4211E2004F0D8FC04F077FF0B
:1003900004F0FDFD7B021A014FF4F841D74804F048
:1003A000C2FDD748C189808905F0D8F804F07CFEE9
:1003B000DFF85093B34840780128FBD1D2A1CDE9B2
:1003C00000B1D222DFF834A3102311461E2004F01E
:1003D000B5FC00250EE04021D14806F09AFD00282A
:1003E000F9D01AF80510CE4806F002FD99F8000081
:1003F00048B96D1CA3484068B5EB800FEBD399F862
:10040000000000286ED0C7A1CDE900B1D222102390
:1004100011461E2004F092FC99F800004D46012878
:100420004DD0022804D0032810D004281ED136E075
:10043000761CF6B2042E00D90026304604F0CDFF1B
:100440006FF0010040FA86F2BCA10CE07F1CFFB205
:10045000042F00D90027384604F082FF6FF0010016
:1004600040FA87F2B8A102A808F0FCF94FF6FF7035
:100470000090CE23EF22B4211E2004F04FFA02A8F0
:10048000CDE900B01023D222B4211E2004F056FC86
:100490004FF4487005F017FB002028702BE008F19E
:1004A0000100C0B28046062801D90020804604F031
:1004B000CCFF7449083151F82820A7A1D3E7641C68
:1004C000E4B2082C00D900248D4800EB840130F8F8
:1004D0002400498805F042F86A4884A1243050F885
:1004E0002420C0E79DA1CDE900B1D22210231146FE
:1004F0001E2004F023FC6348022141705AE70225C4
:1005000086B000262C4601274FF6FF7000F062FFF0
:100510005E494FF478404FF0100808805CA1CDE9A7
:1005200000814346C82232211E2004F007FC91A11D
:10053000CDE900811023C82246211E2004F0FEFBD5
:100540005BA1CDE900811023C82264211E2004F0A4
:10055000F5FB5BA1CDE900811023C82282211E207A
:1005600004F0ECFB5AA1CDE900811023C8229621AA
:100570001E2004F0E3FB84A1CDE900811023C822F2
:10058000AA211E2004F0DAFB04F096FE04F0FFFC22
:1005900000232A030121824804F0C5FCDFF804A2ED
:1005A000BAF80210BAF8000004F0D8FF04F07CFD9D
:1005B0004FF0000BDFF84C9199F8000000285FD055
:1005C00004F082FD99F80000012833D0022804D0FD
:1005D000032810D0042842D11EE0641CE4B2042C8D
:1005E00000D90024204604F0F8FE6FF0010040FA24
:1005F00084F252A10CE06D1CEDB2042D00D900254F
:10060000284604F0ADFE6FF0010040FA85F24EA1DD
:1006100002A808F027F922E0761CF6B2062E00D9CF
:100620000026304604F011FF16484BA1083050F860
:100630002620EDE717B300270FB300214FF4966390
:100640004FF4C862084604F0CBFFBAF80210BAF8BB
:10065000000004F083FF50A102A808F003F9102065
:1006600002A9CDE900010346D22232211E2004F066
:1006700065FB4FF4487005F026FA95E0AEE0AFE078
:1006800096E0000000000020286402405C0000208A
:1006900053544D3332463458580000004F563236CA
:1006A0003430204A504547204D6F646500000000FB
:1006B0004B4559303A436F6E747261737400000099
:1006C0004B4559313A53617475726174696F6E00AC
:1006D0004B4559323A456666656374730000000005
:1006E0004B45595F55503A53697A65004A50454722
:1006F0002053697A653A2573000000004402002007
:10070000508D00086000002053656E64696E67209C
:100710004A50454720646174612E2E2E000000006F
:1007200000100140517569742053656E64696E67ED
:10073000206461746120202000000000436F6E740B
:10074000726173743A2564005361747572617469DF
:100750006F6E3A25640000002573000053656E64D7
:10076000206461746120636F6D706C657465212114
:10077000000000004F5632363430205247423536A2
:1007800035204D6F646500004B45595F55503A4622
:10079000756C6C53697A652F5363616C650000005A
:1007A0000000086044F2012089F800B004F07CFCED
:1007B0000A2005F088F9DFF8908198F802000128F6
:1007C0007FF4F8AEDFF8849161A099F8001008F08A
:1007D0003DF889F800B088F802B0EBE601272BE776
:1007E000BAF80020BAF80230C2F5C860C3F59661C5
:1007F00001EBD17100EBD070D046C1F34F01C0F3D3
:100800004F0004F0EDFEB8F80210B8F8000004F054
:10081000A5FE53A120E71CB54FF4A06005F020FA17
:10082000A82005F00FF94FF4E135284605F06EF9E0
:10083000284605F069F800F093F900F0FDFD04F09A
:10084000B1FA532142F20F7005F0A0F84848416810
:100850005420884747494FF478401026088046A026
:10086000CDE900603346C82232211E2004F066FA2A
:1008700044A0CDE900601023C82246211E2004F0C8
:100880005DFA43A0CDE900601023C8226E211E202E
:1008900004F054FA4FF6FF7715E040A0CDE9006070
:1008A0001023F02282211E2004F048FAC82005F00F
:1008B0000AF9AA23EF2282211E20009704F02EF8C5
:1008C000C82005F000F904F061FC0028E5D136A04D
:1008D000CDE900601023C82282211E2004F02EFAE8
:1008E000DFF86490334D4FF000082878022808D0D4
:1008F00003280CD0641CE4B2642C0FD0C82C17D091
:100900001EE089F8008085F80080FFF7F8FD0121DE
:1009100089F8001085F80080FFF7E1FC26A0CDE9FA
:1009200000601023E62296211E2004F007FA07E05B
:10093000A623D22296211E20009703F0EFFF002469
:10094000052005F0C0F8D0E7000000206E00002070
:100950006672616D653A25646670730D0A00000069
:1009600046756C6C2053697A6520313A310000007D
:10097000500100205C00002053544D33324634783F
:10098000780000004F56323634302054455354001E
:10099000323031372F352F31340000004F56323688
:1009A00034302045525200004F5632363430204FFA
:1009B0004B000000600000204B4559303A5247423E
:1009C00035363520204B4559313A4A5045470000CD
:1009D0007047FEE7FEE7FEE7FEE7704770477047A7
:1009E000704700000CB5002254490092019208683B
:1009F00040F4803008604FF4A043086800F40030F1
:100A000001900098401C0090019810B900989842FD
:100A1000F3D10868800334D5012001904748403065
:100A2000026842F0805202604548026842F4404247
:100A300002604248083002680260026842F40042E4
:100A40000260026842F4A0520260031F3D4A1A602D
:100A50000A6842F080720A600A689201FCD53A493D
:100A600040F205720A60016821F00301016001682B
:100A700041F0020101600168C1F381010229FAD14C
:100A80000CBD01920CBD314810B5016841F47001F4
:100A900001602A48016841F001010160274A0021F4
:100AA0000832116002682A4B1A400260031D294A6D
:100AB0001A60026822F48022026020480C30016033
:100AC000FFF790FF21494FF000608039086010BDAA
:100AD00070B51A4D083528681F4B204910F00C00DE
:100AE00004D05E10042803D0082803D00B601BE05C
:100AF0000E6019E0114A121D1068C0F3805410688E
:100B000000F03F0014B1B6FBF0F001E0B3FBF0F0F1
:100B100013681268C3F388135843C2F30142521C8E
:100B20005200B0FBF2F0086028680C4AC0F30310D2
:100B3000121D105C0A68C2400A6070BD0038024095
:100B40000070004008544007003C024088ED00E07F
:100B5000FFFFF6FE103000240024F40048000020BF
:100B60001CB50121084605F090FF222000900120CD
:100B70008DF8040000218DF8061003218DF8051072
:100B8000054C8DF807006946204605F0C7F922217B
:100B9000204605F028FA1CBD0000024001B5BDF852
:100BA0000000ADF80000BDF80000FE49088008BD57
:100BB00001B5BDF80000ADF80000BDF80000F9492E
:100BC000891C088008BDF74808B5801C0088ADF86E
:100BD0000000BDF8000008BD03B5BDF80000F149F4
:100BE0000880BDF80400891C08800CBD01B5BDF863
:100BF0000000FFF7D3FF052004F037FFBDE80840F1
:100C0000E1E7E948E749008908807047E549891C20
:100C100008807047C0F34511C20AC00200EB4110C2
:100C2000104480B27047401EC0B2FCD27047F0B58D
:100C3000DD4E0C460246050AB1883046A1F5134345
:100C400040894FEA142C413B15D0A1F5A643103B37
:100C500011D0B646B3793688A1F5D047B61A761EBC
:100C6000043F12D07746A1F5A04EBEF5A26E1FD06C
:100C7000012B39D039E0FFF791FF2846FFF798FFA5
:100C8000D0B2FFF795FFB0890CE07546012B00D17B
:100C9000B2B2FFF783FF100AFFF78AFFD0B2FFF767
:100CA00087FFA889FFF77AFF6046FFF781FF17E00B
:100CB000FFF774FF2846FFF77BFF7889401C80B25E
:100CC000FFF76CFFD0B2FFF773FFB889FFF766FF3D
:100CD0006046FFF76DFFB889401C80B2FFF75EFFEA
:100CE000E0B2BDE8F04063E7B2B21146FFF774FF2F
:100CF000B8892146BDE8F0406EE77FB50022ADF827
:100D00000020ADF80420ADF80820A74D2A888242C3
:100D100002D96A888A4202D8002004B070BDFFF769
:100D200086FFA88849F2413645F2103245F2105448
:100D3000B04205D0A0F5D041043901D0904201D194
:100D40002E2005E0A04202D14FF4385000E02220CE
:100D5000FFF724FFA888A0F51341203903D1022012
:100D6000401EC0B2FCD28F48801C0088ADF80C0039
:100D7000BDF80C000220401EC0B2FCD2FFF723FFDA
:100D8000ADF80000A888B04203D0904201D0A04244
:100D900014D10220401EC0B2FCD2FFF714FFADF800
:100DA0000800BDF80000C0B2ADF80400BDF80400B2
:100DB0004FF6FF7101EA0020ADF80400A888A0F505
:100DC0001341253920D0A0F58A4135391CD0091DA1
:100DD0001AD0A0F53541053916D0B1F5805113D0A0
:100DE000B04203D0904201D0A04210D1BDF8000023
:100DF000BDF804106FF30A00890A40EA4110BDF8FB
:100E0000081040EAD12088E7BDF8000085E7BDF86A
:100E1000000004B0BDE87040FCE663488088A0F59F
:100E2000134141390ED0A0F5D04104390AD0A0F5C4
:100E3000A641103906D0B1F5007105D040F273110A
:100E40000720C9E6292001E04FF42450A6E65648C1
:100E50008088A0F5134141390DD0A0F5D041043967
:100E600009D0A0F5A641103905D0B1F5007104D024
:100E700000210720B0E6282001E04FF420508DE645
:100E8000F0B5494D00242946AA79898846F6040719
:100E9000012A18D1B94216D0082814D2DFE800F090
:100EA0000406080A0C0E101206200CE007200AE0C7
:100EB000042008E0052006E0012004E0002002E014
:100EC000032000E00220A1F5134345F2103245F261
:100ED0001056413B05D0B94203D0914201D0B142F6
:100EE0007ED1082812D2DFE800F0110406080A0CAF
:100EF0000E1080240AE0402408E0C02406E02024EC
:100F000004E0602402E0A02400E0E024B14202D129
:100F10004FF4585000E03620914203D0B14201D046
:100F200044F00804B94201D144F002042146FFF71D
:100F300053FEA00609D4A879012806D0288869881C
:100F4000884211D9298068800EE028886988884203
:100F500001D229806880A879012805D1A888B842E3
:100F600002D06C882A8801E02C886A88A888B04260
:100F7000688943D1FFF712FE0020FFF719FE688948
:100F8000401C80B2FFF70AFE0020FFF711FE6889BF
:100F9000801C80B2FFF702FE641EC4F30F20FFF72F
:100FA00007FE03E0FEFF076044F201206889C01CD1
:100FB00080B2FFF7F3FDE0B2FFF7FAFDA889FFF773
:100FC000EDFD0020FFF7F4FDA889401C80B2FFF77B
:100FD000E5FD0020FFF7ECFDA889801C80B200E051
:100FE0002EE0FFF7DBFD521EC2F30F20FFF7E0FDFE
:100FF000A889C01C80B2FFF7D1FD1DE0FFF7CEFD30
:101000000020FFF7D5FD0020FFF7D2FD641EC4F3DA
:101010000F20FFF7CDFDE0B2FFF7CAFDA889FFF76B
:10102000BDFD0020FFF7C4FD0020FFF7C1FD521EEB
:10103000C2F30F20FFF7BCFDBDE8F040D0B2B7E52A
:10104000082812D2DFE800F0040608110A0C0E107E
:1010500030240AE0102408E0202406E0382404E0CC
:10106000282402E0182400E00824A1F5094089386A
:1010700005D0032044F48051BDE8F040ACE51120D8
:1010800046F240012143F7E700B5FFF7D0FDFFF737
:10109000B8FDFE48FE490088088000BD2DE9F041FA
:1010A000FC4D904602464FEA102CAF8828460C466D
:1010B0000E0A4089A7F51341413913D0A7F5A6417F
:1010C00010390FD0B1F5007110D02B46A7F5D04CD8
:1010D00099791B889B1A5B1EBCF1040C1FD0012957
:1010E00032D032E0FFF75AFD60461EE0FFF756FDB2
:1010F0006046FFF75DFD6889401C80B2FFF74EFD3A
:10110000D0B2FFF755FDA889FFF748FD3046FFF73D
:101110004FFDA889401C80B2FFF740FD10E0012977
:1011200000D19AB2FFF73AFD100AFFF741FDD0B2A5
:10113000FFF73EFDA889FFF731FD3046FFF738FD88
:10114000E0B2FFF735FD07E09AB21146FFF744FD24
:10115000A8892146FFF740FDCD492889891E0880CE
:10116000891CA1F80080BDE8F0812DE9F04FC94944
:101170002C242A2589882B2645F2105A4FF4305BFF
:101180004FF4285E4FF0F00C49F241394FF4A0774C
:1011900045F2103246F6040378B1BE484FF001081C
:1011A000494580F806800780A0F802C001D091422E
:1011B00033D10481458186814BE0B6484FF0000869
:1011C000494580F80680A0F800C0478003D09942C6
:1011D00001D091420AD1048145818681994201D092
:1011E00091423ED107804FF4F0710DE051450DD191
:1011F000A0F808B0A0F80AE04FF42C5181814FF418
:10120000F07101804FF4487141802AE02221018170
:10121000202141812121818123E0994203D1048150
:101220004681858115E051450DD1A0F808B0A0F8A0
:101230000AE04FF42C5484814FF4487404804FF436
:10124000F074448005E02224048121244481202478
:101250008481994201D0914203D14FF4F071018011
:101260004780BDE8F04F00200AE62DE9F04706462A
:101270001044401E84B2C818DFF818C2401E0D4644
:1012800082B24FEA1128BCF804006146370A498946
:10129000A0F51343413B2DD0A0F5A643103B29D028
:1012A000A0F5D043043B25D0A0F5AA43103B3ED087
:1012B0009CF8060001287CD0274631462C469446EF
:1012C00050204FF0510A4FF052094FF05308FFF7EA
:1012D00083FC39465046FFF77FFC21464846FFF71E
:1012E0007BFC61464046FFF777FC29463046BDE867
:1012F000F0479CE40846FFF751FC3846FFF758FCDE
:10130000F0B2FFF755FC200AFFF752FCE0B2FFF7FE
:101310004FFCBCF80C00FFF741FC4046FFF748FCCF
:10132000E8B2FFF745FC100AFFF742FC3FE0084631
:10133000FFF734FC3846FFF73BFCBCF80A00401CC2
:1013400080B2FFF72BFCF0B2FFF732FCBCF80A00CA
:10135000801C80B2FFF722FC200AFFF729FCBCF8B2
:101360000A00C01C80B2FFF719FCE0B2FFF720FCB6
:10137000BCF80C00FFF712FC4046FFF719FCBCF864
:101380000C00401C80B2FFF709FCE8B2FFF710FC2C
:10139000BCF80C00801C80B2FFF700FC100AFFF7BD
:1013A00007FCBCF80C00C01C80B2FFF7F7FBD0B202
:1013B00000E003E0BDE8F047FFF7FABBBCF800002F
:1013C0001746021B521E801B401E294694B21FFA6C
:1013D00080FC75E72DE9F0432E4F0646002438883F
:1013E0007D884543B888A0F5D041043902D1B87949
:1013F000012807D000210846FFF719FCFFF701FC80
:10140000234815E00020B8714FF02A09A7F80A9088
:101410004FF02B08A7F80C800146FFF708FC0120CD
:10142000B871A7F80A80A7F80C90E7E70680641C5B
:10143000AC42FBD3BDE8F0832DE9F04FA3B000240C
:1014400001211A20029405F020FB0121084605F035
:1014500030FB4FF0010902268DF804908DF806400C
:101460008DF805604D4600968DF8079069460A484C
:1014700004F054FD8DF804604EF2B3708DF8064010
:10148000032700908DF8057008E000005C00002044
:101490000000086044F2012000040240DFF81C84D0
:1014A0008DF807506946404604F038FD8DF8046019
:1014B0008DF806408DF805708DF807504FF6807056
:1014C000FF4D00906946284604F028FD0C220021BB
:1014D000404604F097FD0C220121404604F092FDA5
:1014E0000C220421404604F08DFD0C2205214046CB
:1014F00004F088FD0C220721404604F083FD0C22F5
:101500000821404604F07EFD0C220921404604F0EB
:1015100079FD0C220A21404604F074FD0C220D21B5
:10152000404604F06FFD0C220E21404604F06AFD97
:101530000C220F21404604F065FD0C2207212846AD
:1015400004F060FD0C220821284604F05BFD0C220B
:101550000921284604F056FD0C220A21284604F0F1
:1015600051FD0C220B21284604F04CFD0C221146A3
:10157000284604F047FD0C220D21284604F042FDC8
:101580000C220E21284604F03DFD0C220F21284696
:1015900004F038FD0F20CDE914043C20CDE91604F9
:1015A0000920CDE91A4018940820CDE91C4019946F
:1015B0001E941F9420942194059410200694CDE944
:1015C000074009940B940A9400020C94CDE90D4055
:1015D0008000CDE90F4014A8CDE911401BA813905D
:1015E00005A804F048FD0121002004F0BDFD3220D3
:1015F00004F069FA01210020FFF7EEFA322004F02E
:1016000062FA0020FFF7F2FAAE4A4FF0204C4FF694
:10161000FF7A908049F2413445F2103545F2105678
:1016200046F604074CF20558FF2804D3504502D073
:10163000B0F5134F5DD1D320FFF7B0FAFFF7C3FA2F
:101640009080FFF7C0FA9080FFF7BDFA0AEA002009
:101650009080FFF7B8FA918808439080A04248D064
:10166000BF20FFF79BFAFFF7AEFA9080FFF7ABFAC7
:101670009080FFF7A8FA9080FFF7A5FA0AEA002009
:101680009080FFF7A0FA918808439080B84230D04C
:10169000D420FFF783FAFFF796FA9080FFF793FACA
:1016A0009080FFF790FA0AEA00209080FFF78BFA0B
:1016B000918808439080A8421BD04FF45A40FFF70E
:1016C0006DFAFFF780FA90804FF45B40FFF766FAFF
:1016D000FFF779FA0AEA002090804FF45C40FFF7A8
:1016E0005DFAFFF770FA918808439080B0F5004FDB
:1016F0001DD080B2A04203D0A84201D0B04218D180
:10170000DCF81C0120F00F00CCF81C01DCF81C01F7
:1017100020F47060CCF81C01DCF81C0140F00300E0
:10172000CCF81C01DCF81C0140F400701BE0968032
:10173000E6E7B84201D0404517D1DCF81C0120F0A3
:101740000F00CCF81C01DCF81C0120F47060CCF810
:101750001C01DCF81C0140F00A00CCF81C01DCF88C
:101760001C0140F44060CCF81C019088A0427CD160
:10177000CF20FFF713FA0020FFF71AFA0298401C57
:101780000290C120FFF714FA3020FFF711FAED2084
:10179000FFF704FA6420FFF70BFA0320FFF708FABB
:1017A0001220FFF705FA8120FFF702FAE820FFF781
:1017B000F5F98520FFF7FCF91020FFF7F9F97A20F9
:1017C000FFF7F6F9CB20FFF7E9F93920FFF7F0F939
:1017D0002C20FFF7EDF90020FFF7EAF93420FFF79E
:1017E000E7F90220FFF7E4F9F720FFF7D7F9202007
:1017F000FFF7DEF9EA20FFF7D1F90020FFF7D8F96B
:101800000020FFF7D5F9C020FFF7C8F91B20FFF72C
:10181000CFF9C120FFF7C2F90120FFF7C9F9C520B0
:10182000FFF7BCF93020FFF7C3F93020FFF7C0F90C
:10183000C720FFF7B3F9B720FFF7BAF93620FFF753
:10184000ADF94820FFF7B4F93A20FFF7A7F9552082
:10185000FFF7AEF9B120FFF7A1F90020FFF7A8F9D3
:101860001A20FFF7A5F9B62000E09CE0FFF796F9F3
:101870000A20FFF79DF9A220FFF79AF9F220FFF75F
:101880008DF90020FFF794F92620FFF787F9012052
:10189000FFF78EF9E020FFF781F90F20FFF788F9B5
:1018A0002A20FFF785F92820FFF782F90820FFF7A3
:1018B0007FF90E20FFF77CF9082005E0000C0240BC
:1018C0000010024044F20120FFF772F95420FFF7A4
:1018D0006FF9A920FFF76CF94320FFF769F90A2097
:1018E000FFF766F90F20FFF763F90020FFF760F9B3
:1018F0000020FFF75DF90020FFF75AF90020FFF7FD
:1019000057F9E120FFF74AF90020FFF751F91520B8
:10191000FFF74EF91720FFF74BF90720FFF748F9BB
:101920001120FFF745F90620FFF742F92B20FFF7BA
:101930003FF95620FFF73CF93C20FFF739F9052025
:10194000FFF736F91020FFF733F90F20FFF730F9D2
:101950003F20FFF72DF93F20FFF72AF90F20FFF76F
:1019600027F92B20FFF71AF90020FFF721F90020B3
:10197000FFF71EF90120FFF71BF93F20FFF718F9C9
:101980002A20FFF70BF90020FFF712F90020FFF7DC
:101990000FF90020FFF70CF9EF20FFF709F91120EC
:1019A000FFF7FCF8A5E0B8427ED11120FFF7F6F86A
:1019B000142004F088F8D020FFF7F0F80720FFF794
:1019C000F7F84220FFF7F4F81D20FFF7F1F8D120D7
:1019D000FFF7E4F80020FFF7EBF81A20FFF7E8F82C
:1019E0000920FFF7E5F8D220FFF7D8F80120FFF72C
:1019F000DFF82220FFF7DCF8C020FFF7CFF8102037
:101A0000FFF7D6F83B20FFF7D3F80020FFF7D0F818
:101A10000220FFF7CDF81120FFF7CAF8C520FFF725
:101A2000BDF80320FFF7C4F8C820FFF7B7F800207F
:101A3000FFF7BEF82520FFF7BBF82120FFF7B8F825
:101A40000520FFF7B5F80020FFF7B2F80A20FFF7EE
:101A5000AFF86520FFF7ACF82520FFF7A9F877204D
:101A6000FFF7A6F85020FFF7A3F80F20FFF7A0F824
:101A70000020FFF79DF8F820FFF790F80120FFF70E
:101A800097F8FE20FFF78AF80020FFF791F8022070
:101A9000FFF78EF82020FFF781F83620FFF77EF859
:101AA0000820FFF785F800E029E03A20FFF776F8F4
:101AB0005520FFF77DF82B20FFF770F80020FFF787
:101AC00077F80020FFF774F80120FFF771F83F2046
:101AD000FFF76EF82A20FFF761F80020FFF768F89B
:101AE0000020FFF765F80120FFF762F8DF20FFF71D
:101AF0005FF8782003F0E7FF292001F0FBBEA84241
:101B00007ED1ED20FFF74AF80120FFF751F8FE20C3
:101B1000FFF74EF8EE20FFF741F8DE20FFF748F818
:101B20002120FFF745F8F120FFF738F80120FFF7F3
:101B30003FF8DF20FFF732F81020FFF739F8C42014
:101B4000FFF72CF88F20FFF733F8C620FFF726F8B1
:101B50000020FFF72DF8E220FFF72AF8E220FFF738
:101B600027F8E220FFF724F8BF20FFF717F8AA2094
:101B7000FFF71EF8B020FFF711F80D20FFF718F857
:101B80000020FFF715F80D20FFF712F80020FFF7EF
:101B90000FF81120FFF70CF80020FFF709F81920C3
:101BA000FFF706F80020FFF703F82120FFF700F801
:101BB0000020FEF7FDFF2D20FEF7FAFF0020FEF7C4
:101BC000F7FF3D20FEF7F4FF0020FEF7F1FF5D2058
:101BD000FEF7EEFF0020FEF7EBFF5D20FEF7E8FFCB
:101BE0000020FEF7E5FFB120FEF7D8FF8020FEF7CA
:101BF000DFFF0020FEF7DCFF8B20FEF7D9FF00E0BF
:101C0000FDE30020FEF7D4FF9620FEF7D1FF002071
:101C1000FEF7CEFFB220FEF7C1FF0020FEF7C8FF9F
:101C20000020FEF7C5FF0220FEF7C2FF0020FEF7EE
:101C3000BFFF0320FEF7BCFF0020FEF7B9FFB32073
:101C4000FEF7ACFF0020FEF7B3FF0020FEF7B0FF69
:101C50000020FEF7ADFF0020FEF7AAFF0020FEF7F0
:101C6000A7FF0020FEF7A4FF0020FEF7A1FF002041
:101C7000FEF79EFF0020FEF79BFF0020FEF798FF77
:101C80000020FEF795FF0020FEF792FF0020FEF7F0
:101C90008FFF0020FEF78CFF0020FEF789FF002059
:101CA000FEF786FF0020FEF783FF0020FEF780FF8F
:101CB0000020FEF77DFF0020FEF77AFF0020FEF7F0
:101CC00077FF0020FEF774FF0020FEF771FF002071
:101CD000FEF76EFFB420FEF761FF8B20FEF768FF72
:101CE0000020FEF765FF9620FEF762FF0020FEF75A
:101CF0005FFFA120FEF75CFF0020FEF759FFB52033
:101D0000FEF74CFF0220FEF753FF0020FEF750FFC6
:101D10000320FEF74DFF0020FEF74AFF0420FEF7E8
:101D200047FF0020FEF744FFB620FEF737FF0020F4
:101D3000FEF73EFF0020FEF73BFFB720FEF72EFF29
:101D40000020FEF735FF0020FEF732FF3F20FEF7B0
:101D50002FFF0020FEF72CFF5E20FEF729FF00205A
:101D6000FEF726FF6420FEF723FF0020FEF720FF8A
:101D70008C20FEF71DFF0020FEF71AFFAC20FEF7B7
:101D800017FF0020FEF714FFDC20FEF711FF0020F4
:101D9000FEF70EFF7020FEF70BFF0020FEF708FF96
:101DA0009020FEF705FF0020FEF702FFEB20FEF774
:101DB000FFFE0020FEF7FCFEDC20FEF7F9FE00200F
:101DC000FEF7F6FEB820FEF7E9FE0020FEF7F0FE73
:101DD0000020FEF7EDFE0020FEF7EAFE0020FEF7F1
:101DE000E7FE0020FEF7E4FE0020FEF7E1FE002003
:101DF000FEF7DEFE0020FEF7DBFEBA20FEF7CEFE89
:101E00002420FEF7D5FE0020FEF7D2FE0020FEF7CC
:101E1000CFFE0020FEF7CCFEC120FEF7BFFE202043
:101E2000FEF7C6FE0020FEF7C3FE5420FEF7C0FEFC
:101E30000020FEF7BDFEFF20FEF7BAFE0020FEF7F1
:101E4000B7FEC220FEF7AAFE0A20FEF7B1FE002070
:101E5000FEF7AEFE0420FEF7ABFE0020FEF7A8FE64
:101E6000C320FEF79BFE3C20FEF7A2FE0020FEF7FB
:101E70009FFE3A20FEF79CFE0020FEF799FE3920D7
:101E8000FEF796FE0020FEF793FE3720FEF790FE49
:101E90000020FEF78DFE3C20FEF78AFE0020FEF7B4
:101EA00087FE3620FEF784FE0020FEF781FE3220FA
:101EB000FEF77EFE0020FEF77BFE2F20FEF778FE69
:101EC0000020FEF775FE2C20FEF772FE0020FEF7C4
:101ED0006FFE2920FEF76CFE0020FEF769FE26202B
:101EE000FEF766FE0020FEF763FE2420FEF760FE8C
:101EF0000020FEF75DFE2420FEF75AFE0020FEF7CC
:101F000057FE2320FEF754FE0020FEF751FE3C2032
:101F1000FEF74EFE0020FEF74BFE3620FEF748FE91
:101F20000020FEF745FE3220FEF742FE0020FEF7BD
:101F30003FFE2F20FEF73CFE0020FEF739FE2C204E
:101F4000FEF736FE0020FEF733FE2920FEF730FEB6
:101F50000020FEF72DFE2620FEF72AFE0020FEF7C9
:101F600027FE2420FEF724FE0020FEF721FE242079
:101F7000FEF71EFE0020FEF71BFE2320FEF718FED4
:101F80000020FEF715FEC420FEF708FE6220FEF7D3
:101F90000FFE0020FEF70CFE0520FEF709FE0020D4
:101FA000FEF706FE8420FEF703FE0020FEF700FE8B
:101FB000F020FEF7FDFD0020FEF7FAFD1820FEF7E9
:101FC000F7FD0020FEF7F4FDA420FEF7F1FD002050
:101FD000FEF7EEFD1820FEF7EBFD0020FEF7E8FD12
:101FE0005020FEF7E5FD0020FEF7E2FD0C20FEF795
:101FF000DFFD0020FEF7DCFD1720FEF7D9FD0020F5
:10200000FEF7D6FD9520FEF7D3FD0020FEF7D0FDAC
:10201000F320FEF7CDFD0020FEF7CAFDE620FEF717
:10202000C7FD0020FEF7C4FDC520FEF7B7FD322036
:10203000FEF7BEFD0020FEF7BBFD4420FEF7B8FD15
:102040000020FEF7B5FD6520FEF7B2FD0020FEF78B
:10205000AFFD7620FEF7ACFD0020FEF7A9FD88203D
:10206000FEF7A6FD0020FEF7A3FDC620FEF796FDB5
:102070002020FEF79DFD0020FEF79AFD1720FEF7B9
:1020800097FD0020FEF794FD0120FEF791FD002052
:10209000FEF78EFDC720FEF781FD0020FEF788FDCC
:1020A0000020FEF785FD0020FEF782FD0020FEF7F0
:1020B0007FFDC820FEF772FD0020FEF779FD0020AD
:1020C000FEF776FD0020FEF773FD0020FEF770FDA1
:1020D000C920FEF763FD0020FEF76AFD0020FEF731
:1020E00067FD0020FEF764FD0020FEF761FD002083
:1020F000FEF75EFD0020FEF75BFD0020FEF758FDB9
:102100000020FEF755FD0020FEF752FD0020FEF7EF
:102110004FFD0020FEF74CFD0020FEF749FD00209A
:10212000FEF746FD0020FEF743FD0020FEF740FDD0
:102130000020FEF73DFDE020FEF730FD1620FEF703
:1021400037FD0020FEF734FD1C20FEF731FD002096
:10215000FEF72EFD2120FEF72BFD0020FEF728FDC7
:102160003620FEF725FD0020FEF722FD4620FEF773
:102170001FFD0020FEF71CFD5220FEF719FD002078
:10218000FEF716FD6420FEF713FD0020FEF710FD9C
:102190007A20FEF70DFD0020FEF70AFD8B20FEF7EA
:1021A00007FD0020FEF704FD9920FEF701FD002049
:1021B000FEF7FEFCA820FEF7FBFC0020FEF7F8FC73
:1021C000B920FEF7F5FC0020FEF7F2FCC420FEF774
:1021D000EFFC0020FEF7ECFCCA20FEF7E9FC002033
:1021E000FEF7E6FCD220FEF7E3FC0020FEF7E0FC61
:1021F000D920FEF7DDFC0020FEF7DAFCE020FEF738
:10220000D7FC0020FEF7D4FCF320FEF7D1FC002021
:10221000FEF7CEFCE120FEF7C1FC1620FEF7C8FC5D
:102220000020FEF7C5FC1C20FEF7C2FC0020FEF7D4
:10223000BFFC2220FEF7BCFC0020FEF7B9FC3620D4
:10224000FEF7B6FC0020FEF7B3FC4520FEF7B0FC1D
:102250000020FEF7ADFC5220FEF7AAFC0020FEF79E
:10226000A7FC6420FEF7A4FC0020FEF7A1FC7A2066
:10227000FEF79EFC0020FEF79BFC8B20FEF798FCEF
:102280000020FEF795FC9920FEF792FC0020FEF757
:102290008FFCA820FEF78CFC0020FEF789FCB920FB
:1022A000FEF786FC0020FEF783FCC420FEF780FCCE
:1022B0000020FEF77DFCCA20FEF77AFC0020FEF726
:1022C00077FCD220FEF774FC0020FEF771FCD820CA
:1022D000FEF76EFC0020FEF76BFCE020FEF768FCCA
:1022E0000020FEF765FCF320FEF762FC0020FEF7FD
:1022F0005FFCE220FEF752FC0520FEF759FC0020AF
:10230000FEF756FC0B20FEF753FC0020FEF750FCB6
:102310001B20FEF74DFC0020FEF74AFC3420FEF7A0
:1023200047FC0020FEF744FC4420FEF741FC00205F
:10233000FEF73EFC4F20FEF73BFC0020FEF738FC8A
:102340006120FEF735FC0020FEF732FC7920FEF715
:102350002FFC0020FEF72CFC8820FEF729FC002033
:10236000FEF726FC9720FEF723FC0020FEF720FC5A
:10237000A620FEF71DFC0020FEF71AFCB720FEF792
:1023800017FC0020FEF714FCC220FEF711FC002011
:10239000FEF70EFCC720FEF70BFC0020FEF708FC42
:1023A000D120FEF705FC0020FEF702FCD620FEF748
:1023B000FFFB0020FEF7FCFBDD20FEF7F9FB002011
:1023C000FEF7F6FBF320FEF7F3FB0020FEF7F0FB31
:1023D000E320FEF7E3FB0520FEF7EAFB0020FEF713
:1023E000E7FB0A20FEF7E4FB0020FEF7E1FB1C20E0
:1023F000FEF7DEFB0020FEF7DBFB332000E0FAE215
:10240000FEF7D6FB0020FEF7D3FB4420FEF7D0FBFF
:102410000020FEF7CDFB5020FEF7CAFB0020FEF7A0
:10242000C7FB6220FEF7C4FB0020FEF7C1FB78204B
:10243000FEF7BEFB0020FEF7BBFB8820FEF7B8FBD3
:102440000020FEF7B5FB9720FEF7B2FB0020FEF759
:10245000AFFBA620FEF7ACFB0020FEF7A9FBB720E0
:10246000FEF7A6FB0020FEF7A3FBC220FEF7A0FBB1
:102470000020FEF79DFBC720FEF79AFB0020FEF729
:1024800097FBD120FEF794FB0020FEF791FBD520AF
:10249000FEF78EFB0020FEF78BFBDD20FEF788FBAE
:1024A0000020FEF785FBF320FEF782FB0020FEF7FD
:1024B0007FFBE420FEF772FB0120FEF779FB002092
:1024C000FEF776FB0120FEF773FB0020FEF770FBA2
:1024D0000220FEF76DFB0020FEF76AFB2A20FEF7C4
:1024E00067FB0020FEF764FB3C20FEF761FB002049
:1024F000FEF75EFB4B20FEF75BFB0020FEF758FB70
:102500005D20FEF755FB0020FEF752FB7420FEF71E
:102510004FFB0020FEF74CFB8420FEF749FB002018
:10252000FEF746FB9320FEF743FB0020FEF740FB3F
:10253000A220FEF73DFB0020FEF73AFBB320FEF79A
:1025400037FB0020FEF734FBBE20FEF731FB0020F6
:10255000FEF72EFBC420FEF72BFB0020FEF728FB26
:10256000CD20FEF725FB0020FEF722FBD320FEF74F
:102570001FFB0020FEF71CFBDD20FEF719FB0020EF
:10258000FEF716FBF320FEF713FB0020FEF710FB0F
:10259000E520FEF703FB0020FEF70AFB0020FEF714
:1025A00007FB0020FEF704FB0020FEF701FB0220E2
:1025B000FEF7FEFA0020FEF7FBFA2920FEF7F8FAF4
:1025C0000020FEF7F5FA3C20FEF7F2FA0020FEF7B5
:1025D000EFFA4B20FEF7ECFA0020FEF7E9FA5D2057
:1025E000FEF7E6FA0020FEF7E3FA7420FEF7E0FAC1
:1025F0000020FEF7DDFA8420FEF7DAFA0020FEF76D
:10260000D7FA9320FEF7D4FA0020FEF7D1FAA220E1
:10261000FEF7CEFA0020FEF7CBFAB320FEF7C8FA99
:102620000020FEF7C5FABE20FEF7C2FA0020FEF732
:10263000BFFAC420FEF7BCFA0020FEF7B9FACD209D
:10264000FEF7B6FA0020FEF7B3FAD320FEF7B0FA91
:102650000020FEF7ADFADC20FEF7AAFA0020FEF714
:10266000A7FAF320FEF7A4FA0020FEF7A1FAE6206D
:10267000FEF794FA1120FEF79BFA0020FEF798FA75
:102680003420FEF795FA0020FEF792FA5620FEF766
:102690008FFA0020FEF78CFA7620FEF789FA0020E8
:1026A000FEF786FA7720FEF783FA0020FEF780FA1D
:1026B0006620FEF77DFA0020FEF77AFA8820FEF702
:1026C00077FA0020FEF774FA9920FEF771FA0020DD
:1026D000FEF76EFABB20FEF76BFA0020FEF768FAF1
:1026E0009920FEF765FA0020FEF762FA6620FEF7F1
:1026F0005FFA0020FEF75CFA5520FEF759FA002039
:10270000FEF756FA5520FEF753FA0020FEF750FA6E
:102710004520FEF74DFA0020FEF74AFA4320FEF767
:1027200047FA0020FEF744FA4420FEF741FA002061
:10273000FEF73EFAE720FEF731FA3220FEF738FACC
:102740000020FEF735FA5520FEF732FA0020FEF79A
:102750002FFA7620FEF72CFA0020FEF729FA6620E1
:10276000FEF726FA0020FEF723FA6720FEF720FA8C
:102770000020FEF71DFA6720FEF71AFA0020FEF788
:1027800017FA8720FEF714FA0020FEF711FA9920B5
:10279000FEF70EFA0020FEF70BFABB20FEF708FA50
:1027A0000020FEF705FA9920FEF702FA0020FEF756
:1027B000FFF97720FEF7FCF90020FEF7F9F9442035
:1027C000FEF7F6F90020FEF7F3F95620FEF7F0F9D0
:1027D0000020FEF7EDF92320FEF7EAF90020FEF7CE
:1027E000E7F93320FEF7E4F90020FEF7E1F9452090
:1027F000FEF7DEF90020FEF7DBF9E820FEF7CEF960
:102800000020FEF7D5F90020FEF7D2F99920FEF757
:10281000CFF90020FEF7CCF98720FEF7C9F9002098
:10282000FEF7C6F98820FEF7C3F90020FEF7C0F9CD
:102830007720FEF7BDF90020FEF7BAF96620FEF713
:10284000B7F90020FEF7B4F98820FEF7B1F90020AF
:10285000FEF7AEF9AA20FEF7ABF90020FEF7A8F9C3
:10286000BB20FEF7A5F90020FEF7A2F99920FEF79C
:102870009FF90020FEF79CF96620FEF799F90020E9
:10288000FEF796F95520FEF793F90020FEF790F930
:102890005520FEF78DF90020FEF78AF94420FEF757
:1028A00087F90020FEF784F94420FEF781F9002023
:1028B000FEF77EF95520FEF77BF90020FEF778F948
:1028C000E920FEF76BF9AA20FEF772F90020FEF767
:1028D0006FF90020FEF76CF90020FEF769F900207F
:1028E000FEF75CF9AA20FEF763F9CF20FEF756F950
:1028F0000020FEF75DF90020FEF75AF90020FEF7F0
:1029000057F90020FEF754F90020FEF751F9002096
:10291000FEF74EF90020FEF74BF90020FEF748F9CC
:102920000020FEF745F90020FEF742F90020FEF7EF
:102930003FF90020FEF73CF90020FEF739F90020AE
:10294000FEF736F90020FEF733F90020FEF730F9E4
:102950000020FEF72DF9F020FEF720F90020FEF709
:1029600027F95020FEF724F90020FEF721F9002076
:10297000FEF71EF90020FEF71BF9F320FEF70EF913
:102980000020FEF715F9F920FEF708F90620FEF7FA
:102990000FF91020FEF70CF92920FEF709F90020A5
:1029A000FEF706F93A20FEF7F9F85520FEF700F990
:1029B0001120FEF7F3F8642003F085F82920FEF7D4
:1029C000EDF83520FEF7EAF80020FEF7F1F8512087
:1029D000FEF7E4F8FF20FEF7EBF85320FEF7DEF8F1
:1029E0002C20FEF7E5F85520FEF7D8F88220FEF7F8
:1029F000DFF82C20FDE3B0427DD14FF47044552127
:102A00002046FEF7E9F8651CAA212846FEF7E4F8FF
:102A1000A61C52213046FEF7DFF8E71C0821384695
:102A2000FEF7DAF84FF2040C01216046FEF7D4F805
:102A30000D214FF43040FEF7CFF80D214BF201008D
:102A4000FEF7CAF80D214BF20200FEF7C5F84FF46D
:102A5000364834214046FEF7BFF834214BF201607E
:102A6000FEF7BAF834214BF20260FEF7B5F84FF4E6
:102A7000314B0D215846FEF7AFF80D214BF20110F6
:102A8000FEF7AAF80D214BF20210FEF7A5F834214B
:102A90004FF43740FEF7A0F834214BF20170FEF7F7
:102AA0009BF834214BF20270FEF796F800214FF4A8
:102AB0003240FEF791F800214BF20120FEF78CF82E
:102AC00000214BF20220FEF787F824214FF4384012
:102AD000FEF782F824214BF60100FEF77DF8242151
:102AE0004BF60200FEF778F801214FF43F40FEF765
:102AF00073F80F2100E0FDE34FF43340FEF76CF86C
:102B00000F214BF20130FEF767F80F214BF2023034
:102B1000FEF762F834214FF43940FEF75DF83421B6
:102B20004BF60110FEF758F834214BF60210FEF771
:102B300053F808214FF43540FEF74EF808214BF2C8
:102B40000150FEF749F808214BF20250FEF744F815
:102B500003214FF44240FEF73FF824214FF43A405E
:102B6000FEF73AF824214BF60120FEF735F8242130
:102B70004BF60220FEF730F800214FF43C40FEF700
:102B80002BF878214BF60140FEF726F800214BF692
:102B90000240FEF721F800214FF43D40FEF71CF8FB
:102BA00078214BF60150FEF717F800214BF6025042
:102BB000FEF712F800214FF43E40FEF70DF86421B5
:102BC0004BF60160FEF708F800214FF45140FEF784
:102BD00003F833214DF20110FDF7FEFF00214DF205
:102BE0000210FDF7F9FF34214DF20310FDF7F4FF59
:102BF00000214DF20410FDF7EFFF3A214DF20510D0
:102C0000FDF7EAFF00214DF20610FDF7E5FF4A212E
:102C10004DF20710FDF7E0FF00214DF20810FDF71F
:102C2000DBFF5C214DF20910FDF7D6FF00214DF2CC
:102C30000A10FDF7D1FF81214DF20B10FDF7CCFFFB
:102C400000214DF20C10FDF7C7FFA6214DF20D102B
:102C5000FDF7C2FF00214DF20E10FDF7BDFFE5218B
:102C60004DF20F10FDF7B8FF01214DF21010FDF7E6
:102C7000B3FF13214DF21110FDF7AEFF01214DF20C
:102C80001210FDF7A9FF54214DF21310FDF7A4FF18
:102C900001214DF21410FDF79FFF82214DF2151016
:102CA000FDF79AFF01214DF21610FDF795FFCA219D
:102CB0004DF21710FDF790FF02214DF21810FDF7AD
:102CC0008BFF00214DF21910FDF786FF02214DF216
:102CD0001A10FDF781FF01214DF21B10FDF77CFF5B
:102CE00002214DF21C10FDF777FF34214DF21D102B
:102CF000FDF772FF02214DF21E10FDF76DFF6721F7
:102D00004DF21F10FDF768FF02214DF22010FDF774
:102D100063FF84214DF22110FDF75EFF02214DF289
:102D20002210FDF759FFA4214DF22310FDF754FFA7
:102D300002214DF22410FDF74FFFB7214DF225106F
:102D4000FDF74AFF02214DF22610FDF745FFCF2186
:102D50004DF22710FDF740FF02214DF22810FDF73C
:102D60003BFFDE214DF22910FDF736FF02214DF227
:102D70002A10FDF731FFF2214DF22B10FDF72CFF49
:102D800002214DF22C10FDF727FFFE214DF22D10F0
:102D9000FDF722FF03214DF22E10FDF71DFF10213C
:102DA0004DF22F10FDF718FF03214DF23010FDF703
:102DB00013FF33214DF23110FDF70EFF03214DF2C9
:102DC0003210FDF709FF6D214DF23310FDF704FFBE
:102DD00000214FF45240FDF7FFFE33214DF2012058
:102DE000FDF7FAFE00214DF20220FDF7F5FE342139
:102DF0004DF20320FDF7F0FE00214DF20420FDF717
:102E0000EBFE3A214DF20520FDF7E6FE00214DF2E2
:102E10000620FDF7E1FE4A214DF20720FDF7DCFE1A
:102E200000214DF20820FDF7D7FE5C214DF209206C
:102E3000FDF7D2FE00214DF20A20FDF7CDFE8121E3
:102E40004DF20B20FDF7C8FE00214DF20C20FDF7DE
:102E5000C3FEA6214DF20D20FDF7BEFE00214DF26E
:102E60000E20FDF7B9FEE5214DF20F20FDF7B4FE6F
:102E700001214DF21020FDF7AFFE13214DF211207C
:102E8000FDF7AAFE01214DF21220FDF7A5FE542107
:102E90004DF21320FDF7A0FE01214DF21420FDF7A5
:102EA0009BFE82214DF21520FDF796FE01214DF289
:102EB0001620FDF791FECA214DF21720FDF78CFE7A
:102EC00002214DF21820FDF787FE00214DF2192056
:102ED000FDF782FE02214DF21A20FDF77DFE012151
:102EE0004DF21B20FDF778FE02214DF21C20FDF76C
:102EF00073FE34214DF21D20FDF76EFE02214DF2CE
:102F00001E20FDF769FE67214DF21F20FDF764FECC
:102F100002214DF22020FDF75FFE84214DF2212099
:102F2000FDF75AFE02214DF22220FDF755FEA421A5
:102F30004DF22320FDF750FE02214DF22420FDF733
:102F40004BFEB7214DF22520FDF746FE02214DF242
:102F50002620FDF741FECF214DF22720FDF73CFE54
:102F600002214DF22820FDF737FEDE214DF2292007
:102F7000FDF732FE02214DF22A20FDF72DFEF2214F
:102F80004DF22B20FDF728FE02214DF22C20FDF7FB
:102F900023FEFE214DF22D20FDF71EFE03214DF2F2
:102FA0002E20FDF719FE10214DF22F20FDF714FE03
:102FB00003214DF23020FDF70FFE33214DF2312079
:102FC000FDF70AFE03214DF23220FDF705FE6D21CB
:102FD0004DF23320FDF700FE00214FF45340FDF782
:102FE000FBFD33214DF20130FDF7F6FD00214DF2DE
:102FF0000230FDF7F1FD34214DF20330FDF7ECFD19
:1030000000214DF20430FDF7E7FD3A214DF2053085
:10301000FDF7E2FD00214DF20630FDF7DDFD4A210E
:103020004DF20730FDF7D8FD00214DF20830FDF7D5
:10303000D3FD5C214DF20930FDF7CEFD00214DF2AC
:103040000A30FDF7C9FD81214DF20B30FDF7C4FDBB
:1030500000214DF20C30FDF7BFFDA6214DF20D30E1
:10306000FDF7BAFD00214DF20E30FDF7B5FDE5216B
:103070004DF20F30FDF7B0FD01214DF21030FDF79C
:10308000ABFD13214DF21130FDF7A6FD01214DF2EC
:103090001230FDF7A1FD54214DF21330FDF79CFDD8
:1030A00001214DF21430FDF797FD82214DF21530CC
:1030B000FDF792FD01214DF21630FDF78DFDCA217D
:1030C0004DF21730FDF788FD02214DF21830FDF763
:1030D00083FD00214DF21930FDF77EFD02214DF2F6
:1030E0001A30FDF779FD01214DF21B30FDF774FD1B
:1030F00002214DF21C30FDF76FFD34214DF21D30E1
:10310000FDF76AFD02214DF21E30FDF765FD6721D6
:103110004DF21F30FDF760FD02214DF22030FDF72A
:103120005BFD84214DF22130FDF756FD02214DF269
:103130002230FDF751FDA4214DF22330FDF74CFD67
:1031400002214DF22430FDF747FDB7214DF2253025
:10315000FDF742FD02214DF22630FDF73DFDCF2166
:103160004DF22730FDF738FD02214DF22830FDF7F2
:1031700033FDDE214DF22930FDF72EFD02214DF207
:103180002A30FDF729FDF2214DF22B30FDF724FD09
:1031900002214DF22C30FDF71FFDFE214DF22D30A6
:1031A000FDF71AFD03214DF22E30FDF715FD10211C
:1031B0004DF22F30FDF710FD03214DF23030FDF7B9
:1031C0000BFD33214DF23130FDF706FD03214DF2A9
:1031D0003230FDF701FD6D214DF23330FDF7FCFC7F
:1031E00000214FF45440FDF7F7FC33214DF201402C
:1031F00000E07FE3FDF7F0FC00214DF20240FDF717
:10320000EBFC34214DF20340FDF7E6FC00214DF2CA
:103210000440FDF7E1FC3A214DF20540FDF7DCFCEE
:1032200000214DF20640FDF7D7FC4A214DF2074040
:10323000FDF7D2FC00214DF20840FDF7CDFC5C21EA
:103240004DF20940FDF7C8FC00214DF20A40FDF7A0
:10325000C3FC81214DF20B40FDF7BEFC00214DF275
:103260000C40FDF7B9FCA6214DF20D40FDF7B4FC72
:1032700000214DF20E40FDF7AFFCE5214DF20F406D
:10328000FDF7AAFC01214DF21040FDF7A5FC13212A
:103290004DF21140FDF7A0FC01214DF21240FDF767
:1032A0009BFC54214DF21340FDF796FC01214DF299
:1032B0001440FDF791FC82214DF21540FDF78CFC86
:1032C00001214DF21640FDF787FCCA214DF217404F
:1032D000FDF782FC02214DF21840FDF77DFC002134
:1032E0004DF21940FDF778FC02214DF21A40FDF72E
:1032F00073FC00E001E301214DF21B40FDF76CFC83
:1033000002214DF21C40FDF767FC34214DF21D40B7
:10331000FDF762FC02214DF21E40FDF75DFC6721C6
:103320004DF21F40FDF758FC02214DF22040FDF701
:1033300053FC84214DF22140FDF74EFC02214DF259
:103340002240FDF749FCA4214DF22340FDF744FC47
:1033500002214DF22440FDF73FFCB7214DF22540FC
:10336000FDF73AFC02214DF22640FDF735FCCF2156
:103370004DF22740FDF730FC02214DF22840FDF7C9
:103380002BFCDE214DF22940FDF726FC02214DF2F7
:103390002A40FDF721FCF2214DF22B40FDF71CFCE9
:1033A00002214DF22C40FDF717FCFE214DF22D407D
:1033B000FDF712FC03214DF22E40FDF70DFC10210C
:1033C0004DF22F40FDF708FC03214DF23040FDF790
:1033D00003FC33214DF23140FDF7FEFB03214DF29A
:1033E0003240FDF7F9FB6D214DF23340FDF7F4FB60
:1033F00000214FF45540FDF7EFFB33214DF2015012
:10340000FDF7EAFB00214DF20250FDF7E5FB342108
:103410004DF20350FDF7E0FB00214DF20450FDF7A3
:10342000DBFB3A214DF20550FDF7D6FB00214DF2B2
:103430000650FDF7D1FB4A214DF20750FDF7CCFBBA
:1034400000214DF20850FDF7C7FB5C214DF20950F9
:10345000FDF7C2FB00214DF20A50FDF7BDFB8121B3
:103460004DF20B50FDF7B8FB00214DF20C50FDF76B
:10347000B3FBA6214DF20D50FDF7AEFB00214DF23E
:103480000E50FDF7A9FBE5214DF20F50FDF7A4FB0F
:1034900001214DF21050FDF79FFB13214DF2115009
:1034A000FDF79AFB01214DF21250FDF795FB5421D7
:1034B0004DF21350FDF790FB01214DF21450FDF732
:1034C0008BFB82214DF21550FDF786FB01214DF259
:1034D0001650FDF781FBCA214DF21750FDF77CFB1A
:1034E00002214DF21850FDF777FB00214DF21950E3
:1034F000FDF772FB02214DF21A50FDF76DFB012121
:103500004DF21B50FDF768FB02214DF21C50FDF7F8
:1035100063FB34214DF21D50FDF75EFB02214DF29D
:103520001E50FDF759FB67214DF21F50FDF754FB6C
:1035300002214DF22050FDF74FFB84214DF2215026
:10354000FDF74AFB02214DF22250FDF745FBA42175
:103550004DF22350FDF740FB02214DF22450FDF7C0
:103560003BFBB7214DF22550FDF736FB02214DF212
:103570002650FDF731FBCF214DF22750FDF72CFBF4
:1035800002214DF22850FDF727FBDE214DF2295094
:10359000FDF722FB02214DF22A50FDF71DFBF2211F
:1035A0004DF22B50FDF718FB02214DF22C50FDF788
:1035B00013FBFE214DF22D50FDF70EFB03214DF2C2
:1035C0002E50FDF709FB10214DF22F50FDF704FBA3
:1035D00003214DF23050FDF7FFFA33214DF2315007
:1035E000FDF7FAFA03214DF23250FDF7F5FA6D219D
:1035F0004DF23350FDF7F0FA00214FF45640FDF73D
:10360000EBFA33214DF20160FDF7E6FA00214DF2AD
:103610000260FDF7E1FA34214DF20360FDF7DCFAB8
:1036200000214DF20460FDF7D7FA3A214DF2056012
:10363000FDF7D2FA00214DF20660FDF7CDFA4A21DE
:103640004DF20760FDF7C8FA00214DF20860FDF762
:10365000C3FA5C214DF20960FDF7BEFA00214DF27C
:103660000A60FDF7B9FA81214DF20B60FDF7B4FA5B
:1036700000214DF20C60FDF7AFFAA6214DF20D606E
:10368000FDF7AAFA00214DF20E60FDF7A5FAE5213B
:103690004DF20F60FDF7A0FA01214DF21060FDF729
:1036A0009BFA13214DF21160FDF796FA01214DF2BC
:1036B0001260FDF791FA54214DF21360FDF78CFA78
:1036C00001214DF21460FDF787FA82214DF2156059
:1036D000FDF782FA01214DF21660FDF77DFACA214D
:1036E0004DF21760FDF778FA02214DF21860FDF7F0
:1036F00073FA00214DF21960FDF76EFA02214DF2C6
:103700001A60FDF769FA01214DF21B60FDF764FABA
:1037100002214DF21C60FDF75FFA34214DF21D606D
:10372000FDF75AFA02214DF21E60FDF755FA6721A6
:103730004DF21F60FDF750FA02214DF22060FDF7B7
:103740004BFA84214DF22160FDF746FA02214DF239
:103750002260FDF741FAA4214DF22360FDF73CFA07
:1037600002214DF22460FDF737FAB7214DF22560B2
:10377000FDF732FA02214DF22660FDF72DFACF2136
:103780004DF22760FDF728FA02214DF22860FDF77F
:1037900023FADE214DF22960FDF71EFA02214DF2D7
:1037A0002A60FDF719FAF2214DF22B60FDF714FAA9
:1037B00002214DF22C60FDF70FFAFE214DF22D6033
:1037C000FDF70AFA03214DF22E60FDF705FA1021EC
:1037D0004DF22F60FDF700FA03214DF23060FDF746
:1037E000FBF933214DF23160FDF7F6F903214DF27B
:1037F0003260FDF7F1F96D214DF23360FDF7ECF920
:1038000055212046FDF7E8F9AA212846FDF7E4F9FD
:1038100052213046FDF7E0F908213846FDF7DCF982
:1038200000216046FDF7D8F9CC215846FDF7D4F9C0
:1038300000214BF20110FDF7CFF905214046FDF7BD
:10384000CBF970214FF43740FDF7C6F970214BF2E8
:103850000170FDF7C1F901214FF43840FDF7BCF9C3
:1038600003214BF60100FDF7B7F903214BF60200E7
:10387000FDF7B2F903214BF60300FDF7ADF9022184
:103880004FF43C40FDF7A8F900214BF60140FDF74D
:10389000A3F900214BF60240FDF79EF9D0214FF429
:1038A0004940FDF799F902214CF60110FDF794F912
:1038B00050214CF60210FDF78FF950214CF6031001
:1038C000FDF78AF950214CF60410FDF785F9002127
:1038D0004FF45450FDF780F955214FF46850FDF72F
:1038E0007BF94FF48850FDF759F9782002F0BDF8C4
:1038F0004FF42450FDF752F9F3E3A0F513414FF4D0
:1039000080744FF4E06B4FF4274625397DD040F2A8
:103910000775C91E7AD04FF488774FF41C560831CA
:1039200075D0113974D0A0F5A841083971D0A0F52F
:10393000A8514FF4407705396CD0B1F520416AD0D9
:10394000404569D100210846FDF746F900210846A7
:10395000FDF742F9142002F0B6F800210846FDF701
:103960003BF900210846FDF737F900210846FDF72D
:1039700033F900210846FDF72FF90121A420FDF7B6
:103980002BF9142002F09FF831466020FDF724F94E
:1039900040F606010820FDF71FF92D1F29463020AB
:1039A000FDF71AF901213120FDF716F90421322023
:1039B000FDF712F9A11C3320FDF70EF9394634202A
:1039C000FDF70AF9E11C3520FDF706F91F21362025
:1039D000FDF702F929463720FDF7FEF801213820CE
:1039E000FDF7FAF804213920FDF7F6F815219020AB
:1039F000FDF7F2F84FF482611020FDF7EDF840F288
:103A000047211120FDF7E8F807E067E033E1ECE13A
:103A100090E267E3FEE3FEE3FEE34FF4DE71122083
:103A2000FDF7DAF84FF460611320FDF7D5F8782040
:103A300002F049F821460120FDF7CEF8610002208E
:103A4000FDF7CAF841F230010320FDF7C5F808215F
:103A50000A20FDF7C1F800210C20FDF7BDF8202158
:103A60000E20FDF7B9F800210F20FDF7B5F8002171
:103A70002020FDF7B1F800212120FDF7ADF83D2110
:103A80002A20FDF7A9F8142002F01DF82D21292085
:103A9000FDF7A2F800215020FDF79EF84DF2EF014E
:103AA0005120FDF799F800215220FDF795F840F2DA
:103AB0003F115320FDF790F800216120FDF78CF8AD
:103AC00000216A20FDF788F839469220FDF784F836
:103AD00005219320FDF780F8214629E247F6F00101
:103AE000E520FDF779F821460120FDF775F85946E4
:103AF0000220FDF771F841F230010320FDF76CF868
:103B000000210420FDF768F840F202210820FDF7AB
:103B100063F800210920FDF75FF800210A20FDF776
:103B20005BF800210C20FDF757F800210D20FDF770
:103B300053F800210F20FDF74FF800211020FDF76A
:103B40004BF807211120FDF747F800211220FDF75F
:103B500043F800211320FDF73FF800210720FDF76F
:103B60003BF841F290611020FDF736F840F2272132
:103B70001120FDF731F89D211220FDF72DF84FF4AB
:103B8000C8511320FDF728F825212920FDF724F836
:103B90000D212B20FDF720F807213020FDF71CF820
:103BA00040F203313120FDF717F803213220FDF7F1
:103BB00013F840F206213520FDF70EF808213620D3
:103BC000FDF70AF840F206413720FDF705F84FF4FB
:103BD00041713820FDF700F807213920FCF7FCFF80
:103BE00040F202613C20FCF7F7FF08213D20FCF782
:103BF000F3FF00215020FCF7EFFFEF215120FCF7ED
:103C0000EBFF00215220FCF7E7FF40F23F11532069
:103C1000FCF7E2FF31466020FCF7DEFF0121612066
:103C2000FCF7DAFF00216A20FCF7D6FF0021802094
:103C3000FCF7D2FF00218120FCF7CEFF002182207B
:103C4000FCF7CAFF00218320FCF7C6FF0021842077
:103C5000FCF7C2FF00218520FCF7BEFF1021902059
:103C6000FCF7BAFF4FF4C0619220FCF7B5FF40F2B9
:103C700033110720FDE341F28F01EC20FCF7ACFF8C
:103C800041F23421EF20FCF7A7FF21460120FCF789
:103C9000A3FF59460220FCF79FFF41F230010320A9
:103CA000FCF79AFF00210420FCF796FF40F2022166
:103CB0000820FCF791FF00210920FCF78DFF00216F
:103CC0000A20FCF789FF01210C20FCF785FF002169
:103CD0000D20FCF781FF00210F20FCF77DFF002164
:103CE0001020FCF779FF07211120FCF775FF002158
:103CF0001220FCF771FF00211320FCF76DFF01215A
:103D00000720FCF769FF322001F0DDFE41F290410F
:103D10001020FCF761FF40F227211120FCF75CFF27
:103D2000322001F0D0FE8A211220FCF755FF32200C
:103D300001F0C9FE4FF4D0511320FCF74DFF0621CE
:103D40002920FCF749FF0D212B20FCF745FF3220ED
:103D500001F0B9FE00212020FCF73EFF00212120C8
:103D6000FCF73AFF322001F0AEFE00213020FCF7D4
:103D700033FF40F204613120FCF72EFF40F20531A1
:103D80003220FCF729FF00213520FCF725FF40F603
:103D900009413620FCF720FF4FF401713720FCF772
:103DA0001BFF40F201313820FCF716FF294639206D
:103DB000FCF712FF00213C20FCF70EFF40F60A2121
:103DC0003D20FCF709FF322001F07DFE002150204C
:103DD000FCF702FFEF215120FCF7FEFE00215220EC
:103DE000FCF7FAFE40F23F114CE100210846FCF7D7
:103DF000F3FE21460120FCF7EFFE59460220FCF7B6
:103E0000EBFE41F230010320FCF7E6FE0021042026
:103E1000FCF7E2FE40F202210820FCF7DDFE002163
:103E20000920FCF7D9FE00210A20FCF7D5FE01216C
:103E30000C20FCF7D1FE00210D20FCF7CDFE002167
:103E40000F20FCF7C9FE322001F03DFE40F20111C7
:103E50000720FCF7C1FE322001F035FE4FF48651F9
:103E60001020FCF7B9FE07211120FCF7B5FE3946FA
:103E70001220FCF7B1FE4FF430611320FCF7ACFECA
:103E800000212920FCF7A8FE44F210012B20FCF7AA
:103E9000A3FE00215020FCF79FFEEF215120FCF7EC
:103EA0009BFE00215220FCF797FE40F23F11532069
:103EB000FCF792FE31466020FCF78EFE0121612066
:103EC000FCF78AFE00216A20FCF786FE0021802094
:103ED000FCF782FE00218120FCF77EFE002182207B
:103EE000FCF77AFE00218320FCF776FE0021842077
:103EF000FCF772FE00218520FCF76EFE1021902059
:103F0000FCF76AFE00219220FCF766FE0121932057
:103F1000FCF762FE39469520FCF75EFE00219720F3
:103F2000FCF75AFE00219820FCF756FE40F2731170
:103F300007207FE341F21401E720FCF74DFE214604
:103F40000120FCF749FE4FF400710220FCF744FE0B
:103F500041F238010320FCF73FFE40F20221082025
:103F6000FCF73AFE00210920FCF736FE00210A206A
:103F7000FCF732FE00210C20FCF72EFE00210D2064
:103F8000FCF72AFE00210F20FCF726FE002110205E
:103F9000FCF722FE07211120FCF71EFE0021122053
:103FA000FCF71AFE00211320FCF716FEC82001F0D2
:103FB0008AFD41F290611020FCF70EFE40F22721AD
:103FC0001120FCF709FE322001F07DFD0C211220AA
:103FD000FCF702FE322001F076FD4FF40061132061
:103FE000FCF7FAFD11212920FCF7F6FD0B212B200F
:103FF000FCF7F2FD322001F066FD00212020FCF7E5
:10400000EBFD40F23F1421462120FCF7E5FD0021A5
:104010003020FCF7E1FD4FF4837739463120FCF77F
:10402000DBFD00213220FCF7D7FD4FF40171352074
:10403000FCF7D2FD41F20A613620FCF7CDFD29469E
:104040003720FCF7C9FD39463820FCF7C5FD294665
:104050003920FCF7C1FD40F202413C20FCF7BCFDD9
:1040600040F60F413D20FCF7B7FD00215020FCF742
:10407000B3FDEF215120FCF7AFFD00215220FCF7EA
:10408000ABFD21465320FCF7A7FD31466020FCF72D
:10409000A3FD01216120FCF79FFD00216A20FCF7B0
:1040A0009BFD00218020FCF797FD00218120FCF77B
:1040B00093FD00218220FCF78FFD00218320FCF777
:1040C0008BFD00218420FCF787FD00218520FCF773
:1040D00083FD10219020FCF77FFD4FF4C0619220FA
:1040E000FEE3AEE221460120FCF776FD59460220B0
:1040F000FCF772FD41F230010320FCF76DFD002159
:104100000420FCF769FD40F207210820FCF764FD5C
:1041100000210920FCF760FD00210A20FCF75CFD6E
:1041200000210C20FCF758FD00210D20FCF754FD68
:1041300000210F20FCF750FD142001F0C4FC41F2D7
:10414000B0611020FCF748FD01211120FCF744FD6F
:1041500001211720FCF740FD4FF49C711220FCF761
:104160003BFD4FF400611320FCF736FD09212920A7
:10417000FCF732FD09212A20FCF72EFD0021A420A6
:10418000FCF72AFD00215020FCF726FDEF215120ED
:10419000FCF722FD00215220FCF71EFD40F23F11EA
:1041A0005320FCF719FD31466020FCF715FD012175
:1041B0006120FCF711FD00216A20FCF70DFD0021B4
:1041C0008020FCF709FD00218120FCF705FD00217E
:1041D0008220FCF701FD00218320FCF7FDFC00217B
:1041E0008420FCF7F9FC00218520FCF7F5FC132165
:1041F0009020FCF7F1FC00219220FCF7EDFC03215C
:104200009320FCF7E9FC39469520FCF7E5FC40F2E9
:10421000731102E006E010E10DE20720FCF7DCFC80
:10422000322007E100210720FCF7D6FC322001F004
:104230004AFC4FF48E711220FCF7CEFC0121A42021
:10424000FCF7CAFC0F210820FCF7C6FC08210A2055
:10425000FCF7C2FC08210D20FCF7BEFC29463020EB
:10426000FCF7BAFC07213120FCF7B6FC40F20361F1
:104270003220FCF7B1FC59463320FCF7ADFC40F28C
:1042800002213420FCF7A8FC02213520FCF7A4FC15
:1042900041F60F713620FCF79FFC29463720FCF7CA
:1042A0009BFC00213820FCF797FC00213920FCF70B
:1042B00093FC29463A20FCF78FFC00213B20FCF7B9
:1042C0008BFC07213C20FCF787FC00213D20FCF7FC
:1042D00083FC322001F0F7FB01210720FCF77CFC76
:1042E00001211720FCF778FC322001F0ECFB4FF4A1
:1042F000BD511020FCF770FC40F217211120FCF793
:104300006BFC4FF48F711220FCF766FC4FF4706168
:104310001320FCF761FC00212A20FCF75DFC0A2138
:104320002920FCF759FC4FF49F711220FCF754FC34
:1043300000215020FCF750FCEF215120FCF74CFCF1
:1043400000215220FCF748FC40F23F115320FCF7BB
:1043500043FC31466020FCF73FFC01216120FCF763
:104360003BFC00216A20FCF737FC00218020FCF791
:1043700033FC00218120FCF72FFC00218220FCF778
:104380002BFC00218320FCF727FC00218420FCF774
:1043900023FC00218520FCF71FFC13219020FCF753
:1043A0001BFC39469220FCF717FC05219320FCF7F3
:1043B00013FC00219520FCF70FFC00219720FCF74F
:1043C0000BFC00219820FCF707FC21460120FCF79C
:1043D00003FC59460220FCF7FFFB41F238010320A1
:1043E000FCF7FAFB00210420FCF7F6FB00210C206F
:1043F000FCF7F2FB00210F20FCF7EEFB0021202050
:10440000FCF7EAFB00212120FCF7E6FB2121072035
:10441000FCF7E2FB142001F056FB61210720FCF7BA
:10442000DBFB142001F04FFB40F273110720FCF777
:10443000D3FB142001F047FBBAE100210846FCF74A
:10444000CBFB00210846FCF7C7FB00210846FCF720
:10445000C3FB00210846FCF7BFFB0121A420FCF7A9
:10446000BBFB142001F02FFB31466020FCF7B4FBAE
:1044700000E0DBE040F2022529460820FCF7ACFB17
:104480004FF405713020FCF7A7FB43F21571312082
:10449000FCF7A2FB40F204613220FCF79DFB40F6E2
:1044A00016613320FCF798FB42F211213420FCF70F
:1044B00093FB4FF4A8513520FCF78EFB48F20751CF
:1044C0003620FCF789FB41F207413720FCF784FBDB
:1044D00041F203413820FCF77FFB20213920FCF713
:1044E0007BFB1A219020FCF777FB00211020FCF7C2
:1044F00073FB07211120FCF76FFB00211220FCF752
:104500006BFB00211320FCF767FB142001F0DBFAA2
:104510004FF4E6611020FCF75FFB40F237111120E9
:10452000FCF75AFB142001F0CEFA4FF4DC71122094
:10453000FCF752FB142001F0C6FA4FF4706113200F
:10454000FCF74AFB80212A20FCF746FB4821292062
:10455000FCF742FB142001F0B6FA21460120FCF7DB
:104560003BFB59460220FCF737FB41F238010320A0
:10457000FCF732FB29460820FCF72EFB00210A201D
:10458000FCF72AFB00210C20FCF726FB00210D2064
:10459000FCF722FB30210E20FCF71EFB00215020EF
:1045A000FCF71AFBEF215120FCF716FB00215220EB
:1045B000FCF712FB40F23F115320FCF70DFB314694
:1045C0006020FCF709FB01216120FCF705FB0021BD
:1045D0006A20FCF701FB11219020FCF7FDFA4FF453
:1045E000C0619220FCF7F8FA40F202419320FCF7F8
:1045F000F3FA02219420FCF7EFFA142001F063FA99
:1046000001210720FCF7E8FA142001F05CFA61218F
:104610000720FCF7E1FA40F273110720FCF7DCFAFF
:1046200000212020FCF7D8FA00212120FCF7D4FA41
:1046300022210020BAE0A0F58A41313902D0091FB9
:104640007ED0B5E001210020FCF7C6FA0A2001F077
:104650003AFA41F228611020FCF7BEFA0E2112202E
:10466000FCF7BAFA40F639211320FCF7B5FA0A2014
:1046700001F029FA40211120FCF7AEFA5021152053
:10468000FCF7AAFA0A2001F01EFA1E211220FCF7FC
:10469000A3FA0A2001F017FA4FF4B1511020FCF7E9
:1046A0009BFA42F639211320FCF796FA0A2001F012
:1046B0000AFA21460120FCF78FFA39460220FCF75E
:1046C0008BFA41F238010320FCF786FA40F202210E
:1046D0000820FCF781FA08210A20FCF77DFA002166
:1046E0003020FCF779FA40F202413120FCF774FAED
:1046F0004FF483713220FCF76FFA40F203513320FC
:10470000FCF76AFA4FF482713420FCF765FA40F244
:1047100001313520FCF760FA29463620FCF75CFAB7
:1047200040F205313720FCF757FA4FF40271382078
:10473000FCF752FA40F60B713920FCF74DFA00E015
:1047400042E002214120FCF747FA31466020FCF7A5
:1047500043FA01216120FCF73FFA4FF404719020E5
:10476000FCF73AFA4FF485719220FCF735FA0421F0
:104770009320FCF731FA2146A020FCF72DFA012105
:104780000720FCF729FA21210720FCF725FA23212D
:104790000720FCF721FA33210720FCF71DFA40F22D
:1047A00033110720FCF718FA0021A020FCF714FAB7
:1047B0000020FCF7DAFCF949C1F884925046FCF776
:1047C00009FE23B0BDE8F08F30211520FCF704FA74
:1047D00010219A20FCF700FA20211120FCF7FCF9A7
:1047E00043F228411020FCF7F7F902211220FCF7D0
:1047F000F3F941F238011320FCF7EEF9282001F01B
:1048000062F912210846FCF7E7F9282001F05BF96C
:1048100043F220411020FCF7DFF943F23801132066
:10482000FCF7DAF9462001F04EF900213020FCF7C0
:10483000D3F940F202413120FCF7CEF940F20731C2
:104840003220FCF7C9F94FF441713320FCF7C4F969
:1048500004213420FCF7C0F940F201413520FCF777
:10486000BBF929463620FCF7B7F940F2053137206D
:10487000FCF7B2F94FF4C26529463820FCF7ACF9D1
:1048800029463920FCF7A8F921460120FCF7A4F9B4
:1048900039460220FCF7A0F941F230010320FCF771
:1048A0009BF940F608010820FCF796F908210A2038
:1048B000FCF792F931466020FCF78EF90121612066
:1048C000FCF78AF94FF49F719020FCF785F9214697
:1048D0009220FCF781F921469320FCF77DF900E056
:1048E00016E04FF44051A020FCF776F91021A320E8
:1048F000FCF772F901210720FCF76EF9212107204E
:10490000FCF76AF923210720FCF766F93321072019
:10491000FCF762F940F23311FFF70ABB2DE9F843C7
:104920009F4D1F468046AB88089EA3F5D0400438B3
:1049300002D1A879012807D0A2EB0800401C85B25B
:104940000C46DFF8609228E02B880846991A00246C
:10495000AC713A462A24A3EB08036C812B27491E2D
:104960005B1EAF8189B29BB20096FFF7D7FF012093
:10497000A8716F81AC81BDE8F88321464046FCF701
:1049800056F9FCF73EF90020494602E0401C0E8033
:1049900080B2A842FAD3641CA4B2BC42EDD9EAE7C3
:1049A0002DE9F0478246A2EB0A00401C0E4685B274
:1049B000981B401C87B20024DFF8E891DDF82080C6
:1049C00014E0301981B25046FCF731F9FCF719F9BF
:1049D0000020494606E004FB0503401C38F813207C
:1049E0000A8080B2A842F6D3641CA4B2BC42E8D3C9
:1049F000BDE8F0872DE9FE4F0026A2EB00088246B5
:104A00005F1A701E35468946B8F1000F02DD4FF07F
:104A1000010102E003D14FF00001019102E0C8F171
:104A200000080190002F02DD4FF0010002E003D1E9
:104A30004FF00000009002E0C7F1000700904046F0
:104A4000B84501DD044600E03C46601C4FF0000B19
:104A5000029015E01FFA89F11FFA8AF0FCF714FBA7
:104A600046443D44A64202DD0199361B8A44A542D4
:104A700002DD00992D1B89440BF101001FFA80FB18
:104A800002998B45E6DDBDE8FE8FF0B51C46154664
:104A90000E4607460B46FFF7ADFF3A462346314622
:104AA0001046FFF7A7FF23462A4619463846FFF768
:104AB000A1FF2A4623463146BDE8F040104699E75B
:104AC0002DE9FC4F80460024154603200F46A0EB3D
:104AD000450649E0781B81B208EB040A01901FFAF1
:104AE0008AF0FCF7D1FA381B81B208EB0509009077
:104AF0001FFA89F0FCF7C8FA07EB040B1FFA8BF1D9
:104B00001FFA89F0FCF7C0FA07EB05091FFA89F1D3
:104B10001FFA8AF0FCF7B8FAA8EB040A1FFA89F129
:104B20001FFA8AF0FCF7B0FAA8EB05091FFA8BF11F
:104B30001FFA89F0FCF7A8FA019881B21FFA8AF0EF
:104B4000FCF7A2FA009881B21FFA89F0FCF79CFAF0
:104B5000641C002E03DA06EB8406B61D04E0601B1D
:104B600006EB80066D1E0A36AC42B3DDBDE8FC8F55
:104B70002DE9F84F82461F460C468B46580700D059
:104B8000012000EBD700790810FB01F0203AC0B2F9
:104B900002F0FF090026009048E00000008040423B
:104BA00044F20120000008600C2F10D0102F12D00A
:104BB000182F3ED1764909EBC90001EB80004FF078
:104BC0000008855D28060AD5724802880BE009EBCB
:104BD00049007149F1E7714901EB0910EFE70A98C3
:104BE00028B96C48428821465046FCF757FA6806B7
:104BF000050E6B48641CA4B24088A04219D9A4EBEE
:104C00000B00B84209D10AF101001FFA80FA64488A
:104C10005C46018851450CD906E008F1010000F01E
:104C2000FF08B8F1080FCDD3761CF6B20098864283
:104C3000BAD3BDE8F88F0346012000E05843491E6F
:104C4000C9B2FBD270472DE9FF4F81B00027DDF8D4
:104C500038B01D46924680463C46B9464FEA5B0650
:104C600027E0281B401EC1B20A20FFF7E4FFBAFB71
:104C7000F0F00A21B0FBF1F201FB120027B9691E26
:104C80008C4201DA48B101273030C2B206FB048001
:104C900080B25B46CDF8009006E006FB048080B24F
:104CA0005B462022CDF800900299FFF761FF641C5B
:104CB000E4B2AC42D5D305B084E52DE9FF4F81B015
:104CC0008046DDF83CA00E984FF000091F46934641
:104CD0004C460AF0010546082BE0381B401EC1B2C5
:104CE0000A20FFF7A8FFBBFBF0F00A21B0FBF1F2AE
:104CF00001FB1200B9F1000F05D1791E8C4202DAD6
:104D000048B14FF001093030C2B206FB048080B2D6
:104D100000950E9B08E05FEA0A6006FB04800E9B8C
:104D200080B2009508D530220299FFF721FF641C5C
:104D3000E4B2BC42D1D3BEE72022F5E72DE9F84F1B
:104D4000044600F0FF0810190D46DDE90A761FFA47
:104D500080FA58191FFA80F94FF0000B11E0544502
:104D600002D3E819444685B24D450FD23B46294649
:104D70002046CDF800B0FFF7FBFE04EB570084B2ED
:104D8000761C3278A2F120005E28E8D951E70000B5
:104D9000D89700085C000020748D0008E891000896
:104DA00044F201201CB50121112001F06EFE0C20FF
:104DB000009000208DF8040003208DF805000124E8
:104DC0008DF807406946484801F0A8F802208DF8A0
:104DD000070000946946454801F0A0F81CBD2DE984
:104DE000F047434DAC1D2888002638B12088401C70
:104DF00080B22080642801D926802E80688838B14E
:104E00006088401C80B26080642801D966806E8012
:104E1000A88838B1A088401C80B2A080642801D93D
:104E2000A680AE80DFF8C0800421404601F0C7F8BC
:104E30002F4FDFF8B8A04FF00109BF1E08B30821BB
:104E4000404601F0BCF8E0B10121504601F0B7F84E
:104E5000012816D004214446404601F0B0F801284C
:104E60000DD10821204601F0AAF8012807D101211F
:104E7000504601F0A4F8002801D187F80190BDE860
:104E8000F0877E700121504601F099F8012815D075
:104E90000421404601F093F8D8B10821404601F0C2
:104EA0008EF80028EBD1A888401C80B2A880052885
:104EB000E5D3A680AE8003203870E0E72888401C48
:104EC00080B228800528DAD326802E8087F80090CB
:104ED000D5E76888401C80B268800528CFD36680FB
:104EE0006E800220E8E7000000100240000002404F
:104EF0006200002010B5012000F097FF01280FD1BB
:104F0000FBF7C2F9012000F098FF9749D1F894020D
:104F100038B10020C1F8940294490878401C087008
:104F200010BD0120F6E72DE9F0410E468046012133
:104F300090B01C461546880501F0A7FD8C4F3846F9
:104F400001F0AAFA384601F0ACFB0028FAD14FF084
:104F5000007000908748CDE901080020CDE90306E4
:104F60004FF48051CDE906410911CDE90851059072
:104F700049020A9104210B910321CDE90C100E90F6
:104F80006946384601F010FB10B0BDE8F0812DE90C
:104F9000FE4F0121172001F078FD0121084601F0A4
:104FA0007EFD5020022500908DF8045000248DF8DD
:104FB000064003208DF80500DFF8BCA101268DF81E
:104FC00007606946504600F0A9FFDFF8B091C0279E
:104FD00069464846009700F0A1FF0097684F694670
:104FE000384600F09BFF7320DFF8988100906946F7
:104FF000404600F093FF0D220421504601F002F8D4
:105000000D220621504600F0FDFF0D2207214846E3
:1050100000F0F8FF0D220621384600F0F3FF0D22C4
:105020000721384600F0EEFF0D220021404600F037
:10503000E9FF0D220121404600F0E4FF0D2204218A
:10504000404600F0DFFF0D220621484600F0DAFF5F
:105050000D220521404600F0D5FF0D2206214046D5
:1050600000F0D0FF00F054FE474820210480448126
:105070008481048181804480C48000F054FE012139
:10508000084600F0B4FE012000F098FE4E208DF896
:1050900008008DF809408DF80A508DF80B6002A8C1
:1050A00000F0E3FDBDE8FE8F10B500210846FBF7D8
:1050B000BEFDFBF7A6FD01212D4801F0AEFABDE8CB
:1050C0001040012000F085BE10B5002000F081FEE8
:1050D000284828380168C907FCD1BDE81040244899
:1050E00001F09BBA2DE9F0411E4617460C460546D5
:1050F000FFF7EAFF4FF6FF70FCF76CF933463A46CC
:1051000021462846FCF7B1F83146384600F026FA29
:1051100000210846FBF78BFDFBF773FD01211448C6
:1051200001F07BFABDE8F041012000F052BE70B5FD
:1051300014460D46064600F0EBFD134B0020A90176
:105140001880588198811981710199805880E001F7
:10515000D880184600F0E7FD012000F03AFEBDE8D7
:105160007040012000F02ABE000040426E00002086
:10517000286402402800055000000240000402405C
:10518000000802400010024052F201202DE9FC41CB
:1051900000240121052001F078FC01258DF8045040
:1051A000002680208DF80660022700908DF805709B
:1051B0008DF807506946FE4800F0B0FE8DF80450A7
:1051C00010208DF8066000908DF805708DF807505E
:1051D0006946F84800F0A2FEF748C0F89C620A2031
:1051E00000F071FCF54FC7F890620A2007F52477AC
:1051F00000F069FC3D6000F085FA0121FF2000F01D
:1052000039FB8021122000F035FB322000F05BFCDE
:105210001C2000F04EFB4FF6FF7505EA00261D200E
:1052200000F047FB40EA0601A1F5FE40A23805D098
:10523000E3A003F00BFB0120BDE8FC810A2000F095
:1052400038FB05EA00250B2000F033FB40EA05019E
:10525000A1F51850423804D0DCA003F0F7FA022080
:10526000EAE7DD4D05EB4400417815F8140000F045
:1052700001FB641CA4B2B22CF4D30020DCE770B5AF
:10528000D64D002405EB4400417815F8140000F0D9
:10529000F1FA641CA4B2082CF4D3D04D00242A3DAA
:1052A00005EB4400417815F8140000F0E3FA641CA3
:1052B000A4B2072CF4D370BD70B5C84D00241C3DBA
:1052C00005EB4400417815F8140000F0D3FA641C93
:1052D000A4B20E2CF4D370BD70B5C049103101EBEF
:1052E000C005002405EB4400417815F8140000F0D7
:1052F000C1FA641CE4B2042CF4D370BD70B55E2511
:105300004126542430B102280BD003280CD00428A5
:1053100010D10CE00021FF2000F0ACFA0021C720E2
:105320001AE065254F2405E05225662402E0422557
:105330003F2671240021FF2000F09CFA4021C72065
:1053400000F098FA2946CC2000F094FA3146CD209E
:1053500000F090FA2146CE20BDE8704000F08ABAF5
:10536000000110B52030C0B240F008040021FF2039
:1053700000F080FA00217C2000F07CFA02217D20E0
:1053800000F078FA03217C2000F074FA21467D2099
:1053900000F070FA2146BDE810407D2000F06ABAA6
:1053A00010B504460021FF2000F064FA00217C20A3
:1053B00000F060FA04217D2000F05CFA09217C20D5
:1053C00000F058FA2007010E7D2000F053FA00216A
:1053D000BDE810407D2000F04DBA70B520252C4668
:1053E00030B1012807D0032808D004280BD108E0E9
:1053F0001825342407E01C252A2404E0242516243B
:1054000001E028250C240021FF2000F033FA0021C0
:105410007C2000F02FFA04217D2000F02BFA0721D8
:105420007C2000F027FA20217D2000F023FA294675
:105430007D2000F01FFA21467D2000F01BFABDE818
:10544000704006217D2000F015BA70B5802600243A
:105450003546072817D2DFE800F0160406080C0FBF
:10546000130040240FE018240DE018244026C02526
:1054700009E01824402601E01824A026402502E077
:1054800018244026A6250021FF2000F0F3F9002172
:105490007C2000F0EFF921467D2000F0EBF905219A
:1054A0007C2000F0E7F931467D2000F0E3F9294641
:1054B000BDE870407D2000F0DDB910B50446012143
:1054C000FF2000F0D7F9122000F0F3F920F00201DC
:1054D0000CB141F00201BDE81040122000F0CAB941
:1054E0002DE9F0410D46044600EB520701EB53064F
:1054F0000121FF2000F0BEF9032000F0DAF906F0E8
:105500000302294600F0F00062F39F0101430320EB
:1055100000F0B0F9C5F38701192000F0ABF9C6F32C
:1055200087011A2000F0A6F9322000F0C2F907F036
:105530000702214600F0C00062F3DF010143322080
:1055400000F098F9C4F3C701172000F093F9C7F3EE
:10555000C701BDE8F041182000F08CB970B5820792
:1055600001D0012070BD8A0701D0022070BD8408DF
:105570008D080021FF2000F07DF90421E02000F0DB
:1055800079F9E1B25A2000F075F9E9B25B2000F038
:1055900071F90421C4F3012001EA951101435C2053
:1055A00000F068F90021E02000F064F9002070BDEF
:1055B000000002400008024000004042000041425A
:1055C0004D49443A25640D0A000000004849443A18
:1055D00025640D0A0000000034A50008C2A60008DA
:1055E0002DE9F04107460E46900702D00120BDE8A4
:1055F000F081980701D00220F9E794089D08002166
:10560000FF2000F037F90421E02000F033F9E1B287
:10561000512000F02FF9E9B2522000F02BF9F9B235
:10562000532000F027F9F1B2542000F023F9284666
:10563000802505EA5001702000EA16100843082171
:1056400001EA54110143C7F302200143552000F041
:1056500011F905EA9401572000F00CF90021E0202F
:1056600000F008F90020C2E770B50D46044600219D
:10567000FF2000F0FFF80421E02000F0FBF8C4F365
:10568000C701C02000F0F6F8C5F3C701C12000F043
:10569000F1F8600705F0070242EA9062802000EA14
:1056A000141111438C2000F0E5F80021E02000F0F7
:1056B000E1F8002070BD00001CB54FF400600090C0
:1056C00001208DF8040000218DF8061003218DF8CB
:1056D00005108DF807006946894800F01FFC1CBDC5
:1056E0001CB54FF40060009000208DF804000320EA
:1056F0008DF8050001208DF807006946804800F00C
:105700000DFC1CBD7CB50121022001F0BEF9012079
:105710008DF8040000228DF8062002218DF8051076
:10572000774D4FF440648DF8070000946946284691
:1057300000F0F4FB2146284600F055FCFFF7BCFFC3
:105740007CBD70B56F4C0120C4F8AC02C4F8A8024F
:10575000322004F52A7400F088F9002565603220B3
:1057600000F083F9256070BD70B5664C0020C4F868
:10577000AC02322004F52A7400F077F90125256087
:10578000322000F072F96560BDE87040322000F010
:105790006CB970B5322000F068F95A4C0120C4F899
:1057A000AC02C4F8A802322004F52A7400F05DF9B6
:1057B00000252560322000F058F96560BDE8704092
:1057C000322000F052B92DE9F04100244D4E05463B
:1057D000A0460127280602D5C6F8AC7201E0C6F83B
:1057E000AC826806050E322000F03FF9C6F8A872B8
:1057F000322000F03AF9C6F8A882641CE4B2082C02
:10580000E8D3FFF76DFF322000F02FF9C6F8A87239
:10581000322000F02AF9D6F82C0208B1012400E069
:105820000024C6F8A882FFF747FF2046BDE8F081B4
:105830002DE9F0410024FFF753FF0825314E0127E1
:10584000A046322000F011F9C6F8A8726006040ED6
:10585000D6F82C0208B1641CE4B2322000F005F93D
:10586000C6F8A8826D1E15F0FF05EAD1FFF724FFE8
:105870002046DBE770B50D4606460024FFF761FFC2
:105880006020FFF7A0FF00B10124642000F0EDF8D4
:105890003046FFF798FF00B10124642000F0E5F8DE
:1058A0002846FFF790FF00B10124FFF75DFF204677
:1058B00070BD10B50446FFF744FF6020FFF783FF7B
:1058C000642000F0D2F82046FFF77DFF642000F04E
:1058D000CCF8FFF749FF642000F0C7F8FFF731FF6D
:1058E0006120FFF770FF642000F0BFF8FFF7A0FF12
:1058F0000446FFF74EFFFFF737FF204610BD0000BC
:10590000000402400080404270B50546012186B087
:10591000084601F0BAF80121480401F0D4F8022148
:105920008DF814100C208DF81510049000248DF8BB
:1059300016400120134E8DF8170004A9304600F0E0
:10594000EDFA07220221304600F05CFB072203211A
:10595000304600F057FBADF80440ADF80640ADF816
:105960000840ADF80C400820074CADF80A0000953F
:105970006946204601F0A5F90121204601F012FAFE
:1059800006B070BD00000240004400407FB50D46E7
:1059900004460121022001F096F800210194ADF89F
:1059A0000050244CADF80210ADF8081069462046AE
:1059B00001F07CFB01221146204601F000FF01218D
:1059C000204601F0EBFB1D208DF80C0001208DF826
:1059D0000D0003218DF80E108DF80F0003A800F0C4
:1059E00044F97FBD10B5134C0121204601F0FBFEA8
:1059F000012817D110480178491CC9B201706429E7
:105A00000ED3002101700D48D0F8841281B100211D
:105A1000C0F884120A480178012901D001210170DF
:105A2000FFF7DDF92046BDE81040012101F0E7BE97
:105A30000121EDE7000400406F000020000040421B
:105A40000200002010B504466FF0040000F04EF98B
:105A50002949E00800EB40020870C2EBC0104FF685
:105A6000FF7202EAC000488010BD2349097848430C
:105A70004FF0E021486100238B61086940F001008C
:105A800008610869C20701D0C003FAD5086920F08F
:105A9000010008618B6170471749498848434FF0FE
:105AA000E021486100238B61086940F00100086132
:105AB0000869C20701D0C003FAD5086920F00100C7
:105AC00008618B61704770B54FF40776B0FBF6F153
:105AD000CCB2B0FBF6F106FB110504E03046FFF74F
